:100000000C94BA010C94E2010C94E2010C94E30C00
:100010000C94E30C0C94E30C0C94E2010C94E201BC
:100020000C94E2010C94E2010C94E2010C94E201C4
:100030000C94E2010C94E2010C94E2010C94E201B4
:100040000C94E12A0C94E2010C94BC250C94EE254E
:100050000C94E2010C94E2010C94E2010C94E20194
:100060000C94DA2E0C94E201EF13F413FF13FF1338
:10007000FF13FF130414061409144C4953545F561C
:10008000414C55453A00416E64612062756B616E6A
:10009000206D656D6173756B6B616E206B61727441
:1000A0007520454B5450004461746120454B5450B9
:1000B00020746964616B20646974656D756B616E31
:1000C0000044617461206A6172692074656C6168C2
:1000D0002070656E7568207061646120454B5450D6
:1000E00020696E6900426572686173696C206D6594
:1000F0006E616D6261686B616E2064617461207015
:100100006164612066696E6765727072696E7420E1
:1001100073656E736F7200476167616C206D657205
:1001200075626168206461746120696E646578003D
:10013000426572686173696C206D65727562616891
:10014000206461746120696E64657800476167614D
:100150006C206D656E616D6261686B616E206461BB
:100160007461206A61726900426572686173696CCA
:10017000206D656E616D6261686B616E2064617493
:1001800061206A6172690052554E4E005761697470
:10019000696E6700466F756E6420504E3533782067
:1001A000626F617264004469646E27742066696ED0
:1001B0006420504E35337820626F61726400556E52
:1001C0006B6E6F776E206572726F72004572726F20
:1001D000722077726974696E6720746F20666C6133
:1001E000736800436F756C64206E6F742073746F56
:1001F000726520696E2074686174206C6F6361742D
:10020000696F6E00436F6D6D756E69636174696FC0
:100210006E206572726F720053746F726564210094
:10022000494420004372656174696E67206D6F6494
:10023000656C20666F72202300506C6163652073CB
:10024000616D652066696E67657220616761696EC0
:10025000004944200052656D6F76652066696E67BF
:1002600065720057616974696E6720666F722076E7
:10027000616C69642066696E67657220746F2065C1
:100280006E726F6C6C206173202300556E6B6E6F05
:10029000776E206572726F7200496D6167696E6773
:1002A000206572726F7200436F6D6D756E69636168
:1002B00074696F6E206572726F72002E00496D61F5
:1002C00067652074616B656E004D6173756B616E5F
:1002D0002049440046696E6765727072696E747376
:1002E000206E6F7420666F756E6400466F756E6465
:1002F0002066696E6765727072696E74007C3C3E40
:100300005E2B3D3F2F5B5D3B2C2A225C00000000F2
:1003100008000201000003040700000000000000C4
:10032000000102040810204080010204081020018E
:100330000204081020040404040404040402020259
:10034000020202030303030303000000002300264C
:1003500000290000000000250028002B00000000FC
:1003600000240027002A00000B04761283181E26A2
:10037000BB2D250411241FBECFEFD8E0DEBFCDBFBB
:1003800012E0A0E0B1E0E4E7F7E602C005900D92CC
:10039000A231B107D9F726E0A2E1B2E001C01D9277
:1003A000A43DB207E1F711E0C9EBD1E004C0219709
:1003B000FE010E945D30C43BD107C9F70E944C2664
:1003C0000C94AD330C940000089540E051EE60E0D1
:1003D00070E083E192E00E94C91283E192E00E9402
:1003E0008314882331F06BEE72E085E695E00C947F
:1003F000D72664ED72E085E695E00E94D72661E09D
:1004000070E080E090E00E945C2BF9CF8130910594
:1004100089F02CF4892B89F46DEB72E010C08230E6
:10042000910529F0039749F469E972E008C06BEB84
:1004300072E005C067EA72E002C06BE872E085E630
:1004400095E00C94D726CF93DF93EC01CD2B51F0A0
:1004500083E192E00E948A14C82FD0E0CE010E946E
:100460000602F4CFDF91CF910895CF9363E672E057
:1004700085E695E00E949A264AE050E060911202DB
:1004800085E695E00E946A278FEF9FEF0E94230286
:1004900061E083E192E00E94C81465E572E085E6C0
:1004A00095E00E94D72660ED77E080E090E00E9422
:1004B0005C2B83E192E00E948A148230D1F761E5DF
:1004C00072E085E695E00E949A264AE050E060914D
:1004D000120285E695E00E946A2769E372E085E6EC
:1004E00095E00E94D7268FEF9FEF0E94230262E0E3
:1004F00083E192E00E94C81464E272E085E695E030
:100500000E949A264AE050E06091120285E695E04A
:100510000E946A2783E192E00E94091560E272E07E
:1005200085E695E00E949A264AE050E0609112022A
:1005300085E695E00E946A276091120270E083E1EF
:1005400092E00E944715C82F90E0009779F468E187
:1005500072E085E695E00E94D7264AE050E060E030
:1005600070E085E695E00E94CB2709C081309105B7
:1005700041F464E072E085E695E00E94D726C1E090
:100580001BC08B30910541F463EE71E085E695E088
:100590000E94D726CBE010C0489741F46CEC71E084
:1005A00085E695E00E94D726C8E106C06EEB71E0B3
:1005B00085E695E00E94D7268C2FCF9108958AE595
:1005C00092E00E94AA0A8AE592E00E94FA0A672B4A
:1005D000682B692B39F466EA71E085E695E00E94A4
:1005E000D726FFCF64E971E085E695E00E94D72623
:1005F0008AE592E00E94440B6CE871E085E695E0A4
:100600000C94D72664E080E193E00E94B810811139
:1006100003C066E171E002C06DE271E085E695E03D
:100620000C94FB26CF93DF93FB0122813381DC0105
:1006300013963C932E93129744815581668177815E
:1006400014964D935D936D937C93179740855185D8
:100650006285738518964D935D936D937C931B977C
:100660001C96EF012C969C01275E3F4F49914D93BC
:10067000A217B307D9F7218D328DFC01328F218F5C
:10068000DF91CF910895FF920F931F93CF93DF9344
:10069000CDB7DEB76B970FB6F894DEBF0FBECDBFF8
:1006A0008C01F62E6BE371E0CE0101960E947B294E
:1006B000B801CE0101960E94772ABC0185E695E03B
:1006C0000E94E926CE0101960E940D29F801608161
:1006D000718180E193E00E946012882351F1B8019A
:1006E000CE0101960E94A7296CE471E0CE0101962B
:1006F0000E948A2ABC0185E695E00E94E926CE0187
:1007000001960E940D29F80140815181FF2011F0CE
:1007100021E001C023E160E173E0CE0101960E9477
:10072000D611BE016F5F7F4F81E792E00E941203F6
:1007300029C0F80140815181FF2011F021E001C062
:1007400023E160E173E0CE0101960E94D611BE0163
:100750006F5F7F4F81E792E00E941203B801CE01E4
:1007600001960E94A72962E571E0CE0101960E94E0
:100770008A2ABC0185E695E00E94E926CE01019611
:100780000E940D2981E792E00E949D0F682F70E082
:100790004AE050E085E695E00E94CB276B960FB6C5
:1007A000F894DEBF0FBECDBFDF91CF911F910F91A7
:1007B000FF9008950F931F93CF93DF93EC018B016C
:1007C00081E792E00E949D0F882369F0BE0181E7D6
:1007D00092E0012B19F40E94BE2602C00E94E92675
:1007E00081E090E008C061E671E085E695E00E9456
:1007F000FB2680E090E0DF91CF911F910F9108954B
:1008000081E792E00C948B0FFC016081718180E1A3
:1008100093E00C946B1281E792E00E94290F46E06E
:1008200065E08AE592E00E94220820E043E062E071
:100830008BE392E00E94B60D20E030E0A9016BE36B
:1008400072E083E192E00C94B6128BE392E00C9498
:100850005D0D85E695E00E949124892BD1F341E05E
:1008600060E070E085E695E00E947D28862F662393
:1008700081F3089569EC72E085E695E00E94D72641
:100880000E94290480931202882321F00E943502DD
:100890008823E1F381E008952F923F924F925F9277
:1008A0006F927F928F929F92AF92BF92CF92DF9280
:1008B000EF92FF920F931F93CF93DF93CDB7DEB7E5
:1008C000C056D1090FB6F894DEBF0FBECDBF4C01A4
:1008D0002B013A0159018E01075B1F4F65EF71E053
:1008E000C8010E947B29680126E0C20ED11C65EF79
:1008F00071E0C6010E947B2978013CE0E30EF11C07
:1009000065EF71E0C7010E947B2965EF71E0C601C8
:100910000E94B02965EF71E0C7010E94B029F5017E
:10092000108281E792E00E949D0F9E012F5F3F4F52
:100930006901882309F496C0790165EF71E0C70168
:100940000E947B2936E0E30EF11CE016F106A9F7C0
:1009500081E792E00E945C0F892B09F46FC04BE3A2
:1009600061E772E0CE01855A9F4F0E94E5286AE751
:1009700070E085E695E00E949A26BE01655A7F4F99
:1009800085E695E00E94E926B401CE01855A9F4F85
:100990000E94D22A892B09F053C0E12CF12C812C22
:1009A000912C312C86E0282EA1968EAD9FADA1977B
:1009B000E816F906D8F5332009F1B701CE01855ABA
:1009C0009F4F0E94A32AFC018081082E000C990BE6
:1009D0000E949F32892B91F0B701CE01855A9F4F1B
:1009E0000E94A32A289C9001299C300D1124FC010F
:1009F0006081C901800F911F0E94642AB701CE0156
:100A0000855A9F4F0E94A32AFC018081082E000C6A
:100A1000990B0E949F32892B29F4FFEF8F1A9F0AAE
:100A2000332433942FEFE21AF20ABECF81E0F501AE
:100A30008083CE01855A9F4F0E940D29780108C0FE
:100A4000F5011082CE01855A9F4F0E940D2980CF5B
:100A5000F6E0EF1AF108C7010E940D29CE14DF0459
:100A6000B9F715C06FE671E0C9010E947B29B40196
:100A7000C6010E94772A68E971E00E948A2ABC01B7
:100A800085E695E00E94E926C6010E940D296801CD
:100A90002CE0C20ED11CC6010E94D62AF30171833C
:100AA00060837801F6E0EF0EF11CC7010E94D62AA0
:100AB000F20171836083C6010E940D29C7010E9463
:100AC0000D29C8010E940D29C05ADF4F0FB6F894B6
:100AD000DEBF0FBECDBFDF91CF911F910F91FF9071
:100AE000EF90DF90CF90BF90AF909F908F907F90CE
:100AF0006F905F904F903F902F900895AF92BF926C
:100B0000CF92DF92EF92FF920F931F93CF93DF93D9
:100B1000CDB7DEB762970FB6F894DEBF0FBECDBF7C
:100B20008C017B015A01690165EF71E00E947B290C
:100B30004AE0B501CE010D960E94F4294AE0B601C3
:100B4000CE0107960E94F42981E792E00E949D0F52
:100B5000882309F452C081E792E00E945C0F892B40
:100B600009F451C04BE361E772E0CE0101960E94A7
:100B7000E528B701CE0101960E94D22A019699F488
:100B8000BE016F5F7F4FC8010E944E2A6EE771E081
:100B9000C8010E94552ABE016F5F7F4F85E695E030
:100BA0000E94E9261FC0B701C8010E944E2A60E8D2
:100BB00071E0C8010E94552ABE01635F7F4FC801E2
:100BC0000E944E2A62E871E0C8010E94552ABE01C7
:100BD000695F7F4FC8010E944E2A6EE771E0C8012D
:100BE0000E94552A68EE73E080E090E00E945C2B42
:100BF000CE0101960E940D29AECF64E871E085E632
:100C000095E00E94FB26CE0107960E940D29CE0199
:100C10000D960E940D29C80162960FB6F894DEBFAA
:100C20000FBECDBFDF91CF911F910F91FF90EF903D
:100C3000DF90CF90BF90AF900895EF92FF920F9307
:100C40001F93CF93DF93CDB7DEB7C155D1090FB650
:100C5000F894DEBF0FBECDBF7E0181E2E80EF11C2D
:100C600087E0F70111928A95E9F700E010E09E0114
:100C70002F5A3F4FA70160E08AE592E00E94740B73
:100C8000882309F495C162968FAD6297873009F089
:100C900089C167E871E085E695E00E94D726AE013C
:100CA0004F5F5F4F64E08AE592E00E94CB0B182F04
:100CB00065EF71E0CE018A5B9F4F0E947B29112373
:100CC00009F464C1870162968FAD629790E0980144
:100CD0002E193F0928173907ACF4F80161918F01EB
:100CE0004AE0CE0188960E94C729BE01685D7F4F09
:100CF000CE018A5B9F4F0E944E2ACE0188960E94A9
:100D00000D29E1CF68EE73E080E090E00E945C2B5B
:100D100062E971E0CE0188960E947B2961E0CE01F4
:100D200088960E944303CE0188960E940D29BE0139
:100D30006A5B7F4FCE0188960E94A7299E01205BA7
:100D40003F4FAE01425B5F4FBE01645B7F4FCE0100
:100D500088960E944C04CE0188960E940D290E941C
:100D6000000461968FAD6197882309F40CC16096E9
:100D70008EAD9FAD60970A970CF0FFC00E943A04B9
:100D8000182F68EE73E080E090E00E945C2B112346
:100D900009F4F0C060968EAD9FAD609701966096A5
:100DA0009FAF8EAF609762E971E0CE0188960E9496
:100DB0007B2961E0CE0188960E944303CE0188968C
:100DC0000E940D296096EEACFFAC60972E960EAD9A
:100DD0001FAD2E97BE016A5B7F4FCE0188960E94A1
:100DE000A7299701A801BE01685D7F4FCE01805CF5
:100DF0009F4F0E947E05CE0188960E940D290E9479
:100E00000004BE01605C7F4F85E695E00E94E92604
:100E10002E966EAD7FAD2E974AE0CE018E960E9443
:100E2000F429BE01625D7F4FCE0188960E94A729FA
:100E300068E971E0CE0188960E948A2ABC01CE0141
:100E4000CA960E94A729CE0188960E940D29CE013C
:100E50008E960E940D29BE01665C7F4FCE0188965A
:100E60000E94A72960E0CE0188960E944303CE012C
:100E700088960E940D294AE060911202CE01C49624
:100E80000E94C729BE016C5C7F4FCE018E960E94E6
:100E9000A7296EE771E0CE018E960E948A2ABC01D6
:100EA000CE0188960E94A72960E070E0CE01889666
:100EB0000E94DA038C01CE0188960E940D29CE0192
:100EC0008E960E940D29CE01C4960E940D290130F4
:100ED000110519F468E671E002C06CE471E085E682
:100EE00095E00E94D7260E94000462E971E0CE01DD
:100EF00088960E947B29CE0188960E940404CE0128
:100F000088960E940D2962E971E0CE0188960E94C0
:100F10007B2960E0CE0188960E944303CE0188962B
:100F20000E940D29BE01605C7F4FCE0188960E9411
:100F3000A72960E070E0CE0188960E94DA038C0158
:100F4000CE0188960E940D290130110519F460E345
:100F500071E002C067E171E085E695E00E94D72666
:100F6000CE01CA960E940D29CE01805C9F4F0E943F
:100F70000D2909C065EE70E002C061EC70E085E605
:100F800095E00E94D7260E94000406C067EA70E040
:100F900085E695E00E94D726CE018A5B9F4F0E948E
:100FA0000D2906C066E870E085E695E00E94D72628
:100FB000CF5ADF4F0FB6F894DEBF0FBECDBFDF9123
:100FC000CF911F910F91FF90EF90089526E040E0A0
:100FD00052EC61E070E085E695E00E9457250E94A2
:100FE00002030E94E5010E94DF020C941D0620917D
:100FF0006006222399F04FB7F894209160062130C3
:1010000059F42DB320935E063DB320915F062095E1
:1010100023232DBB4FBF02C040935E068CBD9DBDF8
:10102000089580916006882361F09FB7F89420911D
:10103000600680915E06213019F48DBB9FBF089534
:101040008FBF0895CF93DF93EC01862F188219820A
:101050001A821B826C834D831D8A1E8A60E00E9467
:10106000FC2B61E08D81DF91CF910C94FC2BEF92F2
:10107000FF920F931F93CF93DF93FC0126892223C6
:1010800039F06EBD00000DB407FEFDCF8EB527C050
:10109000062FEC0161E081810E94382CE12CF12CBB
:1010A00010E060E089810E94382CC8010E2C02C03B
:1010B000959587950A94E2F780FF02C061E001C030
:1010C00060E08A810E94382C61E089810E94382C7E
:1010D000FFEFEF1AFF0A88E0E816F10411F7DF913D
:1010E000CF911F910F91FF90EF900895CF92DF92D3
:1010F000EF92FF921F93CF93DF93FC012689222367
:1011000039F01EBC00000DB407FEFDCF1EB526C091
:10111000EC0161E081810E94382CE12CF12C10E07F
:10112000CC24C394D12C8B810E94672C892B39F05D
:10113000C6010E2C01C0880F0A94EAF7182B60E054
:1011400089810E94382C61E089810E94382CFFEF50
:10115000EF1AFF0A88E0E816F10429F7812FDF91E2
:10116000CF911F91FF90EF90DF90CF9008951F9344
:10117000CF93DF93EC018D89882329F18E89882311
:1011800021F081E790E00E94F70760E088810E94EB
:10119000382C62E070E080E090E00E945C2B62E01E
:1011A000CE010E943708CE010E947608182F61E018
:1011B00088810E94382C8E8981110E94110891E04B
:1011C000113031F406C08C810E94672C91E08111AE
:1011D00090E0892FDF91CF911F910895CF92DF92F8
:1011E000EF92FF921F93CF93DF936C017B01C0E0DE
:1011F000D0E0C6010E94B708182F811115C0E11474
:10120000F10459F02A96EC16FD0638F460EB71E013
:1012100085E695E00E94FB2607C06AE070E080E06A
:1012200090E00E945C2BE5CF812FDF91CF911F9141
:10123000FF90EF90DF90CF900895CF92DF92EF92E2
:10124000FF920F931F93CF93DF93EC016B01F42E6A
:101250008D89042F10E08823C9F18E89882321F01D
:1012600081E790E00E94F70760E088810E94382CB7
:1012700062E070E080E090E00E945C2B63E0CE01D1
:101280000E94370876010C0D1D1D0E151F0569F013
:1012900061E070E080E090E00E945C2BCE010E9453
:1012A0007608F70181937F01F0CF61E088810E9489
:1012B000382C8E89882369F1DF91CF911F910F918E
:1012C000FF90EF90DF90CF900C94110862E070E0F7
:1012D00080E090E00E945C2B42E04F0D64E28CE0E5
:1012E00096E00E94B52D8CE096E00E94982CE601D5
:1012F0000C0D1D1DC017D10761F061E070E080E0AA
:1013000090E00E945C2B8CE096E00E94982C8993E0
:10131000F1CFDF91CF911F910F91FF90EF90DF9070
:10132000CF900895CF93DF9300D000D000D0CDB7F9
:10133000DEB746E0BE016F5F7F4F0E941D0946E0A9
:1013400050E06CE071E0CE0101960E94DF3221E0B6
:10135000892B09F020E0822F26960FB6F894DEBF85
:101360000FBECDBFDF91CF910895682F8CE096E03E
:101370000C94E92CAF92BF92CF92DF92EF92FF9242
:101380000F931F93CF93DF937C018B01FC01858921
:10139000C1E0C40F882309F464C08689882321F042
:1013A00081E790E00E94F70760E0F70180810E94EA
:1013B000382C62E070E080E090E00E945C2B61E0FD
:1013C000C7010E94370860E0C7010E94370860E04B
:1013D000C7010E9437086FEFC7010E9437086C2FC2
:1013E000C7010E9437086C2F6195C7010E9437081A
:1013F00064EDC7010E943708C12C93EDD92ED0E0CF
:101400002197AC2CB12CAC16BD0664F4A00EB11E15
:10141000F5016081C7010E943708F5018081D80E6F
:10142000C394EFCF6D2D6095C7010E94370860E02F
:10143000C7010E94370861E0F70180810E94382CC3
:10144000F7018689882309F455C0DF91CF911F9158
:101450000F91FF90EF90DF90CF90BF90AF900C94E2
:10146000110862E070E080E090E00E945C2B64E292
:1014700070E08CE096E00E943C2D80E00E94B5096F
:1014800080E00E94B5098FEF0E94B5098C2F0E9461
:10149000B5098C2F81950E94B50984ED0E94B5098C
:1014A000B12C83EDD82ED0E02197EB2CF12CEC164B
:1014B000FD065CF4E00EF11EF70180810E94B50983
:1014C000F7018081D80EB394F0CF8D2D80950E94C6
:1014D000B50980E00E94B5098CE096E0DF91CF91DC
:1014E0001F910F91FF90EF90DF90CF90BF90AF9042
:1014F0000C94B82DDF91CF911F910F91FF90EF9039
:10150000DF90CF90BF90AF9008950F931F93CF932C
:10151000DF93EC0189010E94BA09B801CE010E9453
:10152000EE08811102C080E010C0CE010E94920935
:101530008823C9F39D89992341F0B801CE01DF9139
:10154000CF911F910F910C94EE08DF91CF911F91D5
:101550000F910895CF93DF93EC018D89882349F192
:101560008E89882331F00E94BF2D81E790E00E9490
:10157000F70760E088810E94382C68EE73E080E015
:1015800090E00E945C2B82E080938C0228EE33E096
:1015900041E06CE872E0CE010E94850A61E088813A
:1015A0000E94382C8E89882311F1DF91CF910C9401
:1015B00011088CE096E00E94282D61E08D810E9448
:1015C000382C60E08D810E94382C60E971E080E069
:1015D00090E00E945C2B61E08D810E94382C6AE0D3
:1015E00070E080E090E0DF91CF910C945C2BDF9174
:1015F000CF910895CF93DF93EC0182E080938C022A
:1016000028EE33E041E06CE872E0CE010E94850AEA
:10161000811104C060E070E0CB0133C04CE06CE8A5
:1016200072E0CE010E941D0946E050E066E071E0E4
:101630008CE892E00E94DF32892B61F78D8981115D
:1016400003C0E7E0F0E002C0E6E0F0E0E457FD4F61
:101650006081862F90E0A0E0B0E0BA2FA92F982FEC
:1016600088272181822BBA2FA92F982F88272281A2
:10167000822BBA2FA92F982F88272381BC01CD0157
:10168000622BDF91CF910895CF93DF93EC0194E12A
:1016900090938C0281E080938D0290938E028093D0
:1016A0008F0228EE33E044E06CE872E0CE010E9445
:1016B000850A8823B1F048E06CE872E0CE010E9410
:1016C0001D098D89811103C086E090E002C085E08C
:1016D00090E0FC01E457FD4F81E09081953109F0E5
:1016E00080E0DF91CF910895AF92BF92CF92DF92C9
:1016F000EF92FF920F931F93CF93DF93EC017A0148
:10170000590168018AE480938C0281E080938D0204
:1017100060938E02980143E06CE872E0CE010E9473
:10172000850A182F882351F18D89882381F044E19F
:101730006CE872E0CE010E941D0980919302813015
:10174000E9F480919802F501808380E007C0B6013A
:10175000CE010E94EE088111EACF10C0909198024C
:10176000891768F4282F30E0F901E457FD4F95857B
:10177000F701E20FF31F90838F5FF0CF10E0812F0E
:10178000DF91CF911F910F91FF90EF90DF90CF905D
:10179000BF90AF9008950F931F93CF93DF93603462
:1017A00010F080E02AC08A01EC0180E480938C0272
:1017B00081E080938D0280E380938E0260938F029C
:1017C00028EE33E044E06CE872E0CE010E94850A26
:1017D000882339F34AE16CE872E0CE010E941D09CA
:1017E000809193028111DDCF84E0E4E9F2E0D80139
:1017F00001900D928A95E1F781E0DF91CF911F91E1
:101800000F91089520910E0330910F032817390787
:10181000B9F49091CC028091CD02981789F0E091B3
:10182000CC02F0E0E253FD4F80812091CC0230E009
:101830002F5F3F4F2F7333272093CC0290E0089502
:101840008FEF9FEF08951F93CF93DF93DC015C969A
:101850008D919C915D97009739F421E030E01396CB
:101860003C932E9312973BC05196ED91FC91529769
:1018700050962C915097322F30951FB75E964C9111
:101880005E97742F727041FD6095F89440817723C4
:1018900011F0422B01C043234083EC012197F1F763
:1018A00048E0508160FF02C0522B01C05323508397
:1018B000EC012197F1F76695415099F780817723E4
:1018C00019F08323808302C0282B20831FBF5C96DE
:1018D0008D919C915D970197F1F781E090E0DF9108
:1018E000CF911F910895089520910E0330910F0319
:1018F0002817390771F49091CC028091CD02981786
:1019000041F0E091CC02F0E0E253FD4F808190E0A5
:1019100008958FEF9FEF089520910E0330910F03EC
:101920002817390771F48091CD022091CC0290E004
:10193000805C9F4F821B910960E470E00E94083038
:10194000089580E090E00895E0910E03F0910F0378
:10195000E817F90769F4A389B4899C918589809572
:1019600089238C9310920F0310920E0381E0089547
:1019700080E00895CF93DF93EC018A8D9B8D892BB6
:10198000F1F080910E0390910F03C817D907B9F0B9
:10199000009711F00E94A40C8E8D8E7F8E8F109276
:1019A000CD021092CC02D0930F03C0930E03EB89AB
:1019B000FC8990818D89892B808381E001C080E042
:1019C000DF91CF9108951F920F920FB60F921124BD
:1019D0002F933F934F935F936F937F938F939F9337
:1019E000AF93BF93EF93FF93E0910E03F0910F033A
:1019F000309709F451C0968DA685B785858591FFEE
:101A000004C09C91892329F447C09C91892309F043
:101A100043C0A389B4899C918589809589238C933F
:101A2000868997890197F1F7608D718DA685B785B5
:101A3000558538E020E0CB010197F1F7822F90E047
:101A400095958795282F4C91452309F020683150B2
:101A500091F7868D81FD20958091CD0290E00196D1
:101A60008F7399273091CC02381749F0A091CD029D
:101A7000B0E0A253BD4F2C938093CD0203C0868D5E
:101A80008160868F828D938D0197F1F7A389B48948
:101A90009C918589892B8C93FF91EF91BF91AF9198
:101AA0009F918F917F916F915F914F913F912F9176
:101AB0000F900FBE0F901F9018952DEB31E0FC0199
:101AC000318320830C94A40C1F93CF93DF93EC01FC
:101AD000162F6E8D6695617081E06827812F0E94B8
:101AE000382C61E0812F0E94FC2B812F90E0FC01BB
:101AF000EF5DFC4FE491E88BFC01EB5CFC4FE49163
:101B0000F0E0EE0FFF1FED5AFC4F859194919A8BF8
:101B1000898BDF91CF911F9108951F93CF93DF930E
:101B2000EC01162F60E0812F0E94FC2B8E8D81FD31
:101B300004C061E0812F0E94382C1C87812F90E027
:101B4000FC01EF5DFC4FE491ED87FC01EB5CFC4F89
:101B5000E491F0E0EE0FFF1FE75BFC4F859194915D
:101B60009F878E87DF91CF911F9108951F93CF9309
:101B7000DF93EC01162F1B821A8288EE93E0A0E01F
:101B8000B0E08C839D83AE83BF838DEB91E099831E
:101B900088831F8A1E8A198E188E1B8E1A8E1D8EA0
:101BA0001C8E8E8D8E7F20FB81F98E8F642FCE014F
:101BB0000E94640D612FCE01DF91CF911F910C9493
:101BC0008D0DCF93DF93EC019A01AB011B8E1A8E22
:101BD000198E188E1F8A1E8A60E079E08DE390E0EE
:101BE0000E943E30F9012430310518F0C9010397F5
:101BF00002C081E090E09D8F8C8F6C85663108F08B
:101C000069C0C901969587958431910510F0439775
:101C100002C081E090E09F8B8E8B369718F0C9014F
:101C2000059702C081E090E0998F888FC901880FE5
:101C3000991F280F391F36952795369527952D30F2
:101C4000310518F02C50310902C021E030E03B8F03
:101C50002A8F90916800683050F021E06E3008F4CF
:101C600020E081E001C0880F2A95EAF701C084E0F6
:101C7000892B809368009C85983038F09E3040F026
:101C8000963148F020E030E008C02DE630E005C095
:101C90002BE630E002C02CE630E03C8B2B8B9830FA
:101CA00030F481E001C0880F9A95EAF70EC0292F21
:101CB00030E09E3018F42850310902C02E5031090E
:101CC00081E001C0880F2A95EAF78D8B8C8D9D8D60
:101CD0000197F1F7CE01DF91CF910C94BA0CCF931D
:101CE000DF931F92CDB7DEB76983DC01ED91FC91E4
:101CF0000280F381E02D41E050E0BE016F5F7F4F35
:101D000009950F90DF91CF910895CF93DF93EC0168
:101D1000898D9A8D009739F481E090E09B838A83C6
:101D200080E090E00BC0FC01138212820E94361EFC
:101D3000E98DFA8D22813381232B71F7DF91CF91C9
:101D40000895FC01818D928D009711F00C94981BE1
:101D50000895CF93DF931F92CDB7DEB741E050E0F7
:101D6000BE016F5F7F4F0E94B319019719F48981FB
:101D700090E002C08FEF9FEF0F90DF91CF91089519
:101D8000FC01818D928D009711F00C94A90E8FEFBC
:101D90009FEF08950F931F93CF93DF93FC01818DE5
:101DA000928D0097B9F0EF010E94A90E8C010F3FB0
:101DB0008FEF180791F0898D9A8DFC01428553852C
:101DC0006485758541505109610971090E94011BA3
:101DD000C80105C080E090E002C08FEF9FEFDF9167
:101DE000CF911F910F910895EF92FF920F931F9340
:101DF000CF93DF93EC017B018A011B821A8288EE6C
:101E000093E0A0E0B0E08C839D83AE83BF838DEC34
:101E100091E0998388838DE190E00E9491309A8FC0
:101E2000898F009779F02DE1F701DC0101900D9287
:101E30002A95E1F74CE050E0B801CE010C960E94E3
:101E4000ED32188EDF91CF911F910F91FF90EF909F
:101E50000895FC011382128288EE93E0A0E0B0E0C6
:101E600084839583A683B7838DEC91E091838083EF
:101E7000128E118E14860895DC015996ED91FC9115
:101E80005A97309729F062857385848595850895E2
:101E90006FEF7FEFCB010895DC015996ED91FC9136
:101EA0005A97309729F063897489858996890895AE
:101EB00060E070E0CB010895CF92DF92EF92FF9245
:101EC000CF93DF93FC01218D328D232BD9F0EC01D0
:101ED0000E944C0F6B017C01CE010E943C0FA701B8
:101EE0009601261B370B480B590BDA01C9018115E6
:101EF00030E89307A105B10538F08FEF9FE7A0E028
:101F0000B0E002C080E090E0DF91CF91FF90EF90D1
:101F1000DF90CF900895CF93DF93EC01898D9A8D58
:101F2000009741F00E94DF1B898D9A8D0E94293114
:101F30001A8E198EDF91CF910895DC015996ED919B
:101F4000FC915A97309721F081E09581911101C061
:101F500080E008951F93CF93DF93CDB7DEB76D97E1
:101F60000FB6F894DEBF0FBECDBFAB011C821B8243
:101F70002FED31E03A8329831E8221E0BC01CE019E
:101F800001960E94071D11E0811102C010E004C0FB
:101F9000CE0101960E94DF1B812F6D960FB6F8943B
:101FA000DEBF0FBECDBFDF91CF911F9108954423B7
:101FB00039F00E940F1E91E0811103C090E001C032
:101FC00091E0892F0895EF92FF920F931F93CF9383
:101FD000DF93DA01EB0128813981FC01E20FF31F65
:101FE00040814F3211F42F5F3F4F8C01020F131FBE
:101FF0007D01E0E0F0E0E80159918E015F3259F097
:10200000552349F031962F5F3F4FE70159937E01E9
:10201000EC30F10581F7EA0FFB1F1082FC01E20FA3
:10202000F31F40814F3211F42F5F3F4FFB0131838B
:102030002083FC01E20FF31F81E09081911101C028
:1020400080E0DF91CF911F910F91FF90EF90089565
:102050004F925F926F927F928F929F92AF92BF92B8
:10206000CF92DF92EF92FF920F931F93CF93DF9364
:10207000CDB7DEB7C954D1090FB6F894DEBF0FBE95
:10208000CDBF5C016B013A01490119A218A28FED85
:1020900091E09F8F8E8F1BA21C821B829A83898363
:1020A0001E822A961FAE1EAE2A978B017E018EE1FC
:1020B000E80EF11C44244394AE01455C5F4FBE0121
:1020C000685B7F4FC5010E94E30F582E482F4425BF
:1020D0009401BE01655C7F4FC801F3010995811130
:1020E00008C00C151D0519F0C8010E94DF1B80E017
:1020F00027C05520B9F021E0AE01455C5F4FB80123
:10210000C7010E94071D582E0C151D0599F0C80126
:102110000E94DF1B552059F3902F812F8701E92E54
:10212000F82ECACF0C151D0519F0C8010E94DF1B3F
:1021300081E006C08823D9F28E010F5F1F4FECCFDC
:10214000C75BDF4F0FB6F894DEBF0FBECDBFDF9188
:10215000CF911F910F91FF90EF90DF90CF90BF90A4
:10216000AF909F908F907F906F905F904F90089569
:102170000F931F93CF93DF93EC01462F61E00E94F2
:102180007C16882391F08E01045F1F4F41E0BE0151
:10219000C8010E947A23882351F0B801CE018A96A3
:1021A0000E94621991E081110AC090E008C040E0ED
:1021B000BE01C8010E947A238823B9F3EECF892F8C
:1021C000DF91CF911F910F910895FC01DB011296D1
:1021D0008D919C911397938382838FED91E09183EE
:1021E000808314968C911497848315968C911597FF
:1021F000858316964D915D916D917C9119974683DB
:102200005783608771871A964D915D916D917C918E
:102210001D9742875387648775871E964D915D9100
:102220006D917C91519746875787608B718B529641
:102230008C915297828B53964D915D916D917C91CB
:102240005697438B548B658B768B57964D915D914A
:102250006D917C915A97478B508F618F728F5B96EF
:102260008D919C915C97948F838F08954F925F928C
:102270006F927F928F929F92AF92BF92CF92DF9296
:10228000EF92FF920F931F93CF93DF93CDB7DEB7FB
:10229000C754D1090FB6F894DEBF0FBECDBF5C01A5
:1022A0004A013901665D7F4F6E018EE1C80ED11C77
:1022B000C6010E94E5101C821B828FED91E09A837B
:1022C00089831E8274018E010F5F1F4F5C2C4D2C81
:1022D0006FE270E0C7010E94CD32009709F443C05D
:1022E000F70120812F3271F4FFEFEF1AFF0A902FD0
:1022F000812F052D142D2C01C201502E412E092FA6
:10230000182FE6CF8E198D3008F08CE0C82ED12C16
:10231000A601B701CE01CB960E94ED32EBE3F0E0CF
:10232000EC0FFD1FEC0DFD1D1082C8010E94DF1B8C
:1023300021E0AE01455C5F4F652D742DC8010E9400
:10234000071D811109C0F501138212828FED91E002
:1023500091838083158211C0EC0CFD1C852D942D7A
:102360000E94DF1BC9CFE818F908F301F182E0826F
:10237000652D742DC5010E94E510C501C95BDF4FB5
:102380000FB6F894DEBF0FBECDBFDF91CF911F9186
:102390000F91FF90EF90DF90CF90BF90AF909F9004
:1023A0008F907F906F905F904F900895AF92BF9203
:1023B000CF92DF92FF920F931F93CF93DF93CDB70E
:1023C000DEB7C955D1090FB6F894DEBF0FBECDBF39
:1023D0006C015B018A01F22E9E01285A3F4FCE010B
:1023E000CB960E9436116A968EAD9FAD6A97080F04
:1023F000191FF801808181110AC0BE01655C7F4F01
:10240000CE0101960E94E51049ED51E041C019A2AC
:1024100018A28FED91E09F8F8E8F1BA221968FAD1A
:102420002197811104C0C6010E94290F37C0825034
:10243000823060F4B501665D7F4F2F2DA801CE017B
:102440004E960E94071D811110C0EDCF2F2DA801BF
:10245000BE01655C7F4FCE014E960E94071D88230A
:1024600011F3CE01CB960E94DF1B8F2D867041F0B9
:1024700049A95AA96BA97CA9CE014E960E94011BBD
:10248000BE01625E7F4FCE0101960E94E510A80159
:10249000BE016F5F7F4FC6010E94F40EC601C75A8E
:1024A000DF4F0FB6F894DEBF0FBECDBFDF91CF91E7
:1024B0001F910F91FF90DF90CF90BF90AF90089544
:1024C000FB01BC01665D7F4F20E030E04AEA5FE03F
:1024D000CF010C942810FB01BC01665D7F4F20E00A
:1024E00030E047ED5FE0CF010C942810E0E1F3E02D
:1024F000158216821186138682E090E0A0E0B0E09B
:1025000084879587A687B78713A215A614A68FED93
:1025100091E093A782A717A60895DC0181E09FEEC2
:1025200011969C938E9316966C93169718965C93BF
:102530004E9317978FEF12968C93129713968C9356
:10254000139714968C93149715968C931597199648
:102550004034510520F4B901CD010C94C43280E41B
:10256000F90101900D928A95E1F70895FC01268307
:102570003783408751878FEF9FEFDC0182879387F6
:10258000A487B58717A216A275A364A373A362A339
:102590000895CF92DF92EF92FF92CF93DF93EC01F9
:1025A0006A017B0168EE73E080E090E00E945C2BA2
:1025B0008EA19FA1009729F026E0B701A6010E94F5
:1025C00057258CA19DA1009751F0B701A601DF917D
:1025D000CF91FF90EF90DF90CF900C94E10DDF91C1
:1025E000CF91FF90EF90DF90CF900895BF92CF9260
:1025F000DF92EF92FF920F931F93CF93DF93EC0143
:102600008B018AA19BA1DB0111966C91DC01ED91FC
:10261000FC910190F081E02D09958AA19BA1DC013C
:10262000ED91FC910190F081E02DD8016C9109951C
:102630008AA19BA1DC01ED91FC910190F081E02D3C
:10264000D80112966C9109958AA19BA1DC01ED91AC
:10265000FC910190F081E02DD80113966C910995C1
:102660008AA19BA1DC01ED91FC910190F081E02D0C
:10267000D80114966C9109958AA19BA1DC01ED917A
:10268000FC910190F081E02DD80115966C9109958F
:102690008AA19BA1DC01ED91FC910190F081E02DDC
:1026A000D80116966C910995F801C780D084F2E0A4
:1026B000CF0ED11C8AA19BA1ED2CFF24DC01ED9152
:1026C000FC910190F081E02D6E2D09958AA19BA1CE
:1026D000DC01ED91FC910190F081E02D6C2D0995CC
:1026E000EC0CF11CF8018681E80EF11CB12CCB2C0E
:1026F000D12CD80117962D913C9118978AA19BA1B6
:10270000C216D30690F4C00ED11EDC01ED91FC91EF
:102710000190F081E02DD60119966C910995F60192
:102720008185E80EF11CB394E2CFDC01ED91FC91C0
:102730000190F081E02D6F2D09958AA19BA1DC010C
:10274000ED91FC910190F081E02D6E2DDF91CF9104
:102750001F910F91FF90EF90DF90CF90BF90099461
:10276000AF92BF92CF92DF92EF92FF920F931F939F
:10277000CF93DF936C01EB015A01E12CF12C00E0C7
:1027800010E0D60192968D919C919397DC01ED918A
:10279000FC910480F581E02D0995892B71F461E0AD
:1027A00070E080E090E00E945C2BBFEFEB1AFB0A28
:1027B000EA14FB0430F38FEF45C0F60182A193A128
:1027C000DC01ED91FC910680F781E02D099509303F
:1027D000110538F5F801EC5CFF4F0C945D308F3E2D
:1027E00081F61882898328C028813981F901E82B74
:1027F000CF019983888381309F4EF1F020C0FE0184
:10280000E00FF11F808318C08E8316C01F82888757
:1028100013C02F813885A901482BCA0198878F835F
:102820000BC0FE01E00FF11F80832F813885C801A6
:1028300008978217930729F00F5F1F4FA2CF8EEFE3
:1028400001C080E0DF91CF911F910F91FF90EF9039
:10285000DF90CF90BF90AF9008950F931F93CF93C9
:10286000DF93CDB7DEB7CE54D1090FB6F894DEBFF3
:102870000FBECDBF8C01FE01E65BFF4F85E0DF019F
:102880001D928A95E9F783E18083D80116968C9191
:10289000169717969C91179718962C91189719963A
:1028A0003C9131832283938384839F0145E050E0F0
:1028B00061E0CE0101960E948D12BE016F5F7F4FD5
:1028C000C8010E94F61248EE53E0BE016F5F7F4FD1
:1028D000C8010E94B013811109C08F81873031F483
:1028E00081E09A85911103C080E001C081E0C25B64
:1028F000DF4F0FB6F894DEBF0FBECDBFDF91CF9193
:102900001F910F9108950E942D1491E0811190E084
:10291000892F08950F931F93CF93DF93CDB7DEB721
:10292000CA54D1090FB6F894DEBF0FBECDBF8C01DB
:1029300081E02B968FAF2B979E01265B3F4F41E0A6
:1029400050E061E0CE0101960E948D12BE016F5FE2
:102950007F4FC8010E94F61248EE53E0BE016F5F40
:102960007F4FC8010E94B013811105C08F8187304D
:1029700011F48A8501C081E0C65BDF4F0FB6F89481
:10298000DEBF0FBECDBFDF91CF911F910F91089594
:102990000F931F93CF93DF93CDB7DEB7CB54D109FD
:1029A0000FB6F894DEBF0FBECDBF8C0182E02B9630
:1029B0008FAF2B972C966FAF2C979E01265B3F4FC6
:1029C00042E050E061E0CE0101960E948D12BE010E
:1029D0006F5F7F4FC8010E94F61248EE53E0BE01C0
:1029E0006F5F7F4FC8010E94B013811105C08F81B6
:1029F000873011F48A8501C081E0C55BDF4F0FB6D7
:102A0000F894DEBF0FBECDBFDF91CF911F910F9124
:102A100008950F931F93CF93DF93CDB7DEB7CA54BA
:102A2000D1090FB6F894DEBF0FBECDBF8C0185E093
:102A30002B968FAF2B979E01265B3F4F41E050E0D6
:102A400061E0CE0101960E948D12BE016F5F7F4F43
:102A5000C8010E94F61248EE53E0BE016F5F7F4F3F
:102A6000C8010E94B013811105C08F81873011F415
:102A70008A8501C081E0C65BDF4F0FB6F894DEBFE8
:102A80000FBECDBFDF91CF911F910F9108950F938E
:102A90001F93CF93DF93CDB7DEB7CD54D1090FB6D7
:102AA000F894DEBF0FBECDBF8C0186E02B968FAFB2
:102AB0002B9781E02C968FAF2C972D967FAF2D977B
:102AC0002E966FAF2E979E01265B3F4F44E050E05D
:102AD00061E0CE0101960E948D12BE016F5F7F4FB3
:102AE000C8010E94F61248EE53E0BE016F5F7F4FAF
:102AF000C8010E94B013811105C08F81873011F485
:102B00008A8501C081E0C35BDF4F0FB6F894DEBF5A
:102B10000FBECDBFDF91CF911F910F9108959FB749
:102B2000F8942091600680915E06213019F48DBBE7
:102B30009FBF08958FBF08958EBD00000DB407FE9E
:102B4000FDCF8EB508958FEF0C949C1561E0FC01CC
:102B500084810E94382C80915903882339F0109287
:102B600059038091600681110C948F150895CF93BD
:102B7000DF93EC0180915903811109C081E08093BA
:102B8000590380915A0390915B030E94F70760E01C
:102B90008C81DF91CF910C94382CCF93DF93EC0193
:102BA0008E81882389F08F8198859C012F5F3F4F0C
:102BB00038872F838230924018F40E94A315F3CFF8
:102BC000CE010E94A6151E82DF91CF910895673035
:102BD00028F026E1FC01258380E00895623081F031
:102BE00030F4662359F06130B1F480E515C06430EB
:102BF00059F040F0653079F482E50EC080E505C0FB
:102C000081E503C081E508C082E580935A0381E035
:102C100080935B03089583E580935A0310925B03CE
:102C200081E008950F931F93CF93DF93EB010E94F0
:102C30002B2B8B010E94A3158F3F49F00E942B2B59
:102C4000601B710B6C177D07A8F380E001C081E069
:102C5000DF91CF911F910F9108958F929F92AF9224
:102C6000BF92FF920F931F93CF93DF93EC01F62E49
:102C700049015A010E94CD15CE010E94B7156CE2A0
:102C800071E0CE010E9412168F2D80640E949C1567
:102C900008E110E0D501C401002E04C0B695A79547
:102CA000979587950A94D2F70E949C1508501109B0
:102CB000083F8FEF180771F7FF2029F088E0F8121E
:102CC00004C087E803C085E901C08FEF0E949C150E
:102CD00010E00E94A3158A8787FF04C01F3F11F0F0
:102CE0001F5FF7CFDF91CF911F910F91FF90BF90A2
:102CF000AF909F908F9008958F929F92AF92BF92C6
:102D0000EF92FF920F931F93CF93DF93EC01E62E88
:102D10001B8619861E821D824C830E942B2B4B0121
:102D20005C0161E08C810E94FC2B61E08C810E943F
:102D3000382C0E94BF2D82E580935A0310925B03CA
:102D400080915A0390915B030E94F7071AE08FEF7E
:102D50000E949C151150D9F78091600681110E9444
:102D60008F158401CE010E94B71520E030E0A90143
:102D700060E0CE010E942D16F82E8A8781E0F816B9
:102D800049F00E942B2B601B710B613D774068F36B
:102D900081E04CC02AEA31E040E050E068E0CE013A
:102DA0000E942D1682FF02C0FB860EC094E0F92E11
:102DB0000E94A3158A87FA94F110FACF8A3A11F08B
:102DC00082E034C082E08B878B85823021F0812CB9
:102DD000912C540105C0812C912CA12C80E4B82E9B
:102DE00020E030E0A90167E3CE010E942D16A50185
:102DF000940169E2CE010E942D168A87882349F04A
:102E00000E942B2B601B710B613D774048F388E0DB
:102E10000DC08B85823039F520E030E0A9016AE3EE
:102E2000CE010E942D16882389F086E08D83CE0185
:102E30000E94A61580E0DF91CF911F910F91FF9026
:102E4000EF90BF90AF909F908F9008950E94A31530
:102E5000807C803C11F483E08B870E94A3150E9444
:102E6000A3150E94A315CE010E94A6156E2DCE01BA
:102E7000DF91CF911F910F91FF90EF90BF90AF9096
:102E80009F908F900C94E7150F931F93CF93DF9330
:102E9000EC010E942B2B8B010E94A3158A878F3F88
:102EA00049F40E942B2B601B710B6D327140A0F313
:102EB0008FE003C08E3F39F08DE08D83CE010E94FC
:102EC000A61580E001C081E0DF91CF911F910F91A5
:102ED0000895CF92DF92EF92FF920F931F93CF93BB
:102EE000DF93EC016901C801820F931F813092408A
:102EF00008F05CC08E81882371F088819981AA8155
:102F0000BB8184179507A607B70729F48F81988599
:102F1000C816D90610F5488359836A837B838B854D
:102F2000833039F089E0440F551F661F771F8A955B
:102F3000D1F79A01AB0161E1CE010E942D168823E1
:102F400019F083E08D8332C0CE010E94441788239C
:102F500069F118861F8281E08E838F8198858C1598
:102F60009D0540F40E94A3158F819885019698874E
:102F70008F83F3CF6701E00EF11ECE14DF0431F032
:102F80000E94A315F60181936F01F7CF8F81988579
:102F9000080F191F18870F838985882319F00115D9
:102FA000124048F0CE010E94CD1505C0CE010E940E
:102FB000A61580E001C081E0DF91CF911F910F91B4
:102FC000FF90EF90DF90CF900895EF92FF920F93D4
:102FD0001F930115110519F00E94691701C081E0C6
:102FE0001F910F91FF90EF900895EF92FF920F9332
:102FF0001F93790100E012E020E030E00E946917A1
:103000001F910F91FF90EF900895EF92FF920F9311
:103010001F93CF93DF938C01862F7A010E949C151A
:10302000E7018EEFF81A89910E949C15CE15DF05F5
:10303000D1F78FEF0E949C158FEF0E949C150E9484
:10304000A315F80182878F71853039F081E185837E
:10305000C8010E94A61580E001C081E0DF91CF91F8
:103060001F910F91FF90EF9008950F931F93CF93AF
:10307000DF93EC018901411551056105710511F4DA
:1030800082E132C08B85833039F089E0440F551FCF
:10309000661F771F8A95D1F79A01AB0168E1CE01CF
:1030A0000E942D16882311F084E01EC0A8016EEF47
:1030B000CE010E9405188823C1F068E572E0CE01B8
:1030C0000E941216811102C085E10EC020E030E09E
:1030D000A9016DE0CE010E942D16811104C00E944D
:1030E000A315882339F084E18D83CE010E94A615B3
:1030F00080E004C0CE010E94A61581E0DF91CF914F
:103100001F910F910895EAE5F3E080E58083118235
:103110000895CF93DF93EC019C012A5F3F4F41E07C
:1031200050E060E070E08B8D9C8D0E940F22882320
:10313000A1F08F89988DA98DBA8D892B8A2B8B2B25
:1031400059F48E819F81A885B9858F8B988FA98F1F
:10315000BA8F8C8180688C8381E0DF91CF91089554
:10316000CF92DF92EF92FF921F93CF93DF93EC0108
:103170000E948918811102C080E04AC0EB8DFC8D4D
:10318000CE80DF80E884F98482E0C81AD108E108A3
:10319000F108058404C0CC0CDD1CEE1CFF1C0A9455
:1031A000D2F786859785A089B189C80ED91EEA1EF7
:1031B000FB1E148181E0C81AD108E108F10811232F
:1031C00061F0C701B601610F711D811D911D0E9443
:1031D0005E20882389F21150F2CFEB8DFC8D80E0C8
:1031E00092E0A0E0B0E0058404C0880F991FAA1FF8
:1031F000BB1F0A94D2F74B895C896D897E89840F45
:10320000951FA61FB71F8B8B9C8BAD8BBE8B81E050
:10321000DF91CF911F91FF90EF90DF90CF900895B5
:10322000CF93DF93EC01462F6E857F85888999893E
:103230000E942320882341F08A8920E2829FC001D6
:1032400011248B599C4F02C080E090E0DF91CF9118
:103250000895FB019B01255F3F4F40E24193E21738
:10326000F307E1F7DC0190E027E08D91882319F165
:103270008E3229F42A3021F198E02AE0F6CFEDEFE2
:10328000F2E03491332321F031968313FACF18C042
:103290002917B0F03FED380F3E3590F431E0390F8B
:1032A000FB01E90FF11D9FE9980F9A3108F4805254
:1032B0008083932FDACF81E0FB019081903209F473
:1032C00080E008950F931F93CF93DF93FC01258136
:1032D000222311F080E042C08B01EC01FB018789C1
:1032E0008031B1F482E08D831F8A188E198E1A8E78
:1032F000808D918DA0E0B0E025E0880F991FAA1F76
:10330000BB1F2A95D1F78B8B9C8BAD8BBE8B15C0C9
:10331000803201F783E08D83FB01428D538D648DF4
:10332000758D4F8B588F698F7A8F9E012D5E3F4F21
:10333000C8010E940521882369F21C8F0B8F81E050
:103340008C831E821F82188619861A861B861C860D
:103350001D861E861F86188A198A1A8ADF91CF91C8
:103360001F910F9108952F923F924F925F926F920B
:103370007F928F929F92AF92BF92CF92DF92EF9205
:10338000FF920F931F93CF93DF93EC015B014A01F0
:103390008D81811103C08FEF9FEFD7C08C8180FF9B
:1033A000FACF4B885C886D887E884A855B856C8502
:1033B0007D85C401A0E0B0E093018201041B150BE0
:1033C000260B370B081719072A073B0718F4420189
:1033D000841A950A24011E0126E0220E311C411494
:1033E000510409F47EC04A855B856C857D856A0140
:1033F00081E0D822ED818B8D9C8D8A019B01F9E0C3
:103400003695279517950795FA95D1F7E23061F42F
:10341000FC01828D938DA48DB58DBC01CD01600F13
:10342000711F821F931F3FC0FC0174807A94702229
:10343000C114D104C9F4711017C0452B462B472B7A
:1034400049F48F89988DA98DBA8D8E839F83A88723
:10345000B9870AC04E815F816885798591010E9494
:103460008220882309F497CFEB8DFC8D8E819F817C
:10347000A885B9850297A109B109058404C0880F00
:10348000991FAA1FBB1F0A94D2F7468557856089EA
:103490007189840F951FA61FB71FBC01CD01670D51
:1034A000711D811D911D20E032E02C193D09320172
:1034B0002415350508F439012C8126FD04C061145A
:1034C000F2E07F0679F5009112011091130120912D
:1034D000140130911501601771078207930719F4E1
:1034E00021C0C40132C0750183019601AB01BC014A
:1034F00080916303909164030E94E517882309F487
:103500004ACFA60CB71C8A859B85AC85BD85860DE8
:10351000971DA11DB11D8A879B87AC87BD87461863
:1035200057085DCF40E00E942320882309F433CF61
:10353000F601EB59FC4FD501CF01860D971D8E1773
:103540009F07F9F221912D93FACFDF91CF911F912F
:103550000F91FF90EF90DF90CF90BF90AF909F9032
:103560008F907F906F905F904F903F902F90089535
:10357000FF920F931F93CF93DF931F92CDB7DEB7C8
:10358000FC012581223018F480E090E033C08C01EA
:10359000FC01428553856485758585E07695679540
:1035A000579547958A95D1F7F42FFF70FF2E41E08C
:1035B00050E0BE016F5F7F4FC8010E94B3190197B1
:1035C00019F4898190E002C08FEF9FEF0196E1F23C
:1035D000F80182859385A485B5854F96A11DB11DFF
:1035E00082879387A487B587F0E2FF9EC0011124EC
:1035F0008B599C4F0F90DF91CF911F910F91FF90AE
:1036000008958F929F92AF92BF92CF92DF92EF92E6
:10361000FF920F931F93CF93DF93EC018D81811164
:1036200002C080E078C00B891C892D893E8904176F
:10363000150726073707A8F36A017B01823029F4B2
:10364000CA86DB86EC86FD860DC0C114D104E10478
:10365000F10451F41E821F82188619861A861B8671
:103660001C861D8681E057C08A849B84AC84BD84FF
:10367000EB8DFC8D258530E0275F3F4FB501A40120
:103680004150510961097109022E04C07695679570
:10369000579547950A94D2F7D701C6010197A1091A
:1036A000B10904C0B695A795979587952A95D2F745
:1036B00084179507A607B70720F089288A288B2842
:1036C00071F44F89588D698D7A8D4E835F83688739
:1036D00079874C015D018E010A5F1F4F16C0841B64
:1036E000950BA60BB70BF5CF4E815F816885798569
:1036F00098018B8D9C8D0E94822091E0891A9108FF
:10370000A108B108882309F48CCF81149104A10485
:10371000B10451F795CFDF91CF911F910F91FF9099
:10372000EF90DF90CF90BF90AF909F908F900895D3
:103730000F931F93CF93DF93EC018D818823C9F101
:103740008C8187FF30C061E0CE010E9410198C018E
:10375000892B79F18D81823048F48B899C89AD89E0
:10376000BE89F801848F958FA68FB78F8F89988D2A
:10377000A98DBA8DF801938F828FB58BA48BE091C0
:103780005C03F0915D03309759F0B8016A5E7F4F9A
:10379000C80148960995F801808D918D938B828B95
:1037A0008C818F778C83DF91CF911F910F910C9437
:1037B000E81F80E0DF91CF911F910F910895CF9383
:1037C000DF93EC010E94981B882311F01D8281E099
:1037D000DF91CF9108954F925F926F927F928F9277
:1037E0009F92AF92BF92EF92FF920F931F93CF934E
:1037F000DF9300D000D0CDB7DEB7FC0185818130EA
:10380000E9F4848181FF1AC083899489A589B689E6
:1038100084179507A607B70788F0892B8A2B8B2B6F
:1038200009F479C04A015B017F01428453846484B6
:103830007584CF010E94011B811102C080E06CC021
:10384000F701838D948D81149104A104B10471F466
:103850004789508D618D728D0E942423882371F3D6
:10386000F701178A108E118E128E3AC0F701468129
:103870005781608571859E012F5F3F4F0E94822096
:103880008823E1F249815A816B817C81F701838D24
:10389000948DFC012789203129F008EF1FEF2FEFCD
:1038A0003FE004C008EF1FEF20E030E04017510771
:1038B00062077307A8F40E942423882309F4BECF6B
:1038C000F70146815781608571850FEF1FEF2FEF5C
:1038D0003FE0838D948D0E946E21882309F4AECF42
:1038E000F701838A948AA58AB68A84818068848352
:1038F000C7010E94981B882309F4A0CFB501A40139
:10390000481459046A047B0410F4B301A201C701EE
:103910000E94011B01C081E00F900F900F900F904B
:10392000DF91CF911F910F91FF90EF90BF90AF90DB
:103930009F908F907F906F905F904F9008951F930E
:10394000CF93DF93EC0180E2689FF0011124EB59E3
:10395000FC4F9385917129F0842F827411F080E0DF
:1039600052C0142F6A8B8091120190911301A09183
:103970001401B09115018E879F87A88BB98B44895C
:10398000558960E070E0BA0155274427828D938DF8
:10399000A0E0B0E0482B592B6A2B7B2B4F8B588F24
:1039A000698F7A8F8385887151F4848D958DA68D6A
:1039B000B78D8B8B9C8BAD8BBE8B81E00CC0803127
:1039C00071F69E012D5E3F4F8B8D9C8D0E940521CF
:1039D000882329F284E08D83812F8F708C831E824F
:1039E0001F82188619861A861B861C861D8616FF5E
:1039F00009C040E050E0BA01CE01DF91CF911F91A4
:103A00000C94EB1B81E0DF91CF911F910895BF9241
:103A1000CF92DF92EF92FF920F931F93CF93DF939A
:103A2000CDB7DEB72B970FB6F894DEBF0FBECDBF74
:103A3000FC0135813111BFC0C22E8B017C01BE015A
:103A40006F5F7F4FCA010E942919882309F4B3C010
:103A5000F801838D948DF701948F838FF80116827E
:103A60001782108611861286138614861586D12C2D
:103A7000F80182859385A485B58543895489658934
:103A8000768984179507A607B70708F03EC025E09A
:103A9000B695A795979587952A95D1F7F82FFF703A
:103AA000BF2EC8010E94B81A009709F484C0FC0117
:103AB00020812223A1F0253E09F47FC04BE050E095
:103AC000BC01CE0101960E94B732892B89F68C2D5C
:103AD0008073803309F46FC04C2D6B2D68C0D110FA
:103AE00012C0F701B28A4091120150911301609106
:103AF00014017091150146875787608B718BFC010B
:103B0000808181115DC0DD24D3948C2D827182313E
:103B100009F051C0DD2041F061E0C7010E94101999
:103B20008C01892B79F447C0F8018581823009F432
:103B300042C0C8010E94B0188823E9F1F701128A37
:103B400005E613E080E2F80111928A95E9F78BE02F
:103B5000FE013196D80101900D928A95E1F7E0912E
:103B60005C03F0915D03309739F0B801625F7F4FDD
:103B7000C8014096099509C081E298E2F801918B4D
:103B8000808B80E098E097878687F801808991890B
:103B9000938B828B918F808F86859785978B868B71
:103BA0000E94E81F882339F04C2DF7016289C70174
:103BB0000E949F1C08C080E006C0DD2009F491CF60
:103BC000DD24D39455CF2B960FB6F894DEBF0FBEED
:103BD000CDBFDF91CF911F910F91FF90EF90DF90BC
:103BE000CF90BF900895CF93DF93EC0140E050E079
:103BF000BA010E94EB1B882371F061E0CE010E94A4
:103C00001019009741F025EEFC0120831D82DF9101
:103C1000CF910C94E81F80E0DF91CF910895CF936E
:103C2000DF93CDB7DEB76D970FB6F894DEBF0FBE4A
:103C3000CDBFAB011C821B822FED31E03A8329837B
:103C40001E8222E0BC01CE0101960E94071D88233E
:103C500021F0CE0101960E94F31D6D960FB6F894E7
:103C6000DEBF0FBECDBFDF91CF9108952F923F925F
:103C70004F925F926F927F928F929F92AF92BF927C
:103C8000CF92DF92EF92FF920F931F93CF93DF9328
:103C900000D000D0CDB7DEB78C016B011A01DC017A
:103CA00015968C9115978130C9F414968C9181FFEB
:103CB00015C082FF1DC0F801438954896589768942
:103CC00082859385A485B58584179507A607B707D0
:103CD00079F0C8010E94011B81110AC081E090E0C7
:103CE000D80113969C938E93129780E090E048C180
:103CF000410183C05B968D919C915C97FC0174801F
:103D00002FEF270D2A013B0139E0769467945794F1
:103D100047943A95D1F7722E74207A01F1E0FF2290
:103D2000772009F476C080E092E08E199F09540153
:103D30008815990508F45C01D8015B962D913C919A
:103D40005C9716968D919D910D90BC91A02D029738
:103D5000A109B109F901058404C0880F991FAA1FA0
:103D6000BB1F0A94D2F74685578560897189840FF5
:103D7000951FA61FB71F9C01AD01270D311D411DC9
:103D8000511D29013A01A11432E0B30609F088C09F
:103D90008091120190911301A0911401B09115012D
:103DA000481659066A067B0659F48FEF9FEFDC012F
:103DB0008093120190931301A0931401B093150105
:103DC0009601B301A20180916303909164030E9464
:103DD0003518882309F482CF9EEFD91A8A189B08D8
:103DE000F80182859385A485B5858A0D9B1DA11D4B
:103DF000B11D82879387A487B587D8011A964D9104
:103E00005D916D917C911D978114910409F072CFA1
:103E100087C0E114F10409F086CF16964D915D91AB
:103E20006D917C911997411551056105710559F402
:103E300057968D919D910D90BC91A02D0097A10555
:103E4000B10541F521C09E012F5F3F4F0E948220A6
:103E5000882309F44BCF89819A81AB81BC81F80119
:103E6000238D348DF9012789203129F048EF5FEF48
:103E70006FEF7FE004C048EF5FEF60E070E0841711
:103E80009507A607B70730F0C8010E94891881116D
:103E90004ACF24CFF80186839783A087B18743CF89
:103EA000E114F10429F5D8011A964D915D916D91B7
:103EB0007C911D9753968D919D910D90BC91A02D55
:103EC000481759076A077B0798F00E94E81F882364
:103ED00009F404CF40921201509213016092140130
:103EE000709215018091620381608093620308C023
:103EF00041E0C301B2010E942320882309F4EECEE1
:103F0000D601F701EB59FC4F9F012A0D3B1D2E17DF
:103F10003F0719F08D918193FACFCA0CDB1C5ECF5D
:103F2000D8015396CD90DD90ED90FC905697149665
:103F30008C91C416D506E606F70640F4F801438BCB
:103F4000548B658B768B806884830DC020915C03D5
:103F500030915D03232B39F02114310421F0806866
:103F6000D80114968C93F801848183FD02C0C101AD
:103F700007C0C8010E94981B882309F4AFCEF7CF71
:103F80000F900F900F900F90DF91CF911F910F9195
:103F9000FF90EF90DF90CF90BF90AF909F908F9069
:103FA0007F906F905F904F903F902F900895CF93A8
:103FB000DF931F92CDB7DEB7698341E050E0BE01C9
:103FC0006F5F7F4F0E94361E0F90DF91CF91089553
:103FD000809162038823A9F140911201509113014D
:103FE000609114017091150125E633E0809163031F
:103FF000909164030E943518811102C080E00895F9
:1040000040915E0350915F03609160037091610382
:10401000411551056105710591F025E633E0809168
:104020006303909164030E943518882339F310923A
:104030005E0310925F03109260031092610310926E
:10404000620381E00895CF92DF92EF92FF92CF93C7
:104050006B017C01C42F8091120190911301A091FA
:104060001401B09115018C159D05AE05BF05D1F069
:104070000E94E81F811102C080E01AC025E633E0EB
:10408000B701A60180916303909164030E94F51724
:10409000882391F3C0921201D0921301E09214018F
:1040A000F092150180916203C82BC093620381E0F6
:1040B000CF91FF90EF90DF90CF900895CF92DF9255
:1040C000EF92FF926B017C010E94E81F8823A9F008
:1040D000E5E6F3E0119285E0E536F807D9F7C092FE
:1040E0001201D0921301E0921401F0921501809117
:1040F000620381608093620381E0FF90EF90DF9024
:10410000CF9008958F929F92AF92BF92CF92DF92FD
:10411000EF92FF920F931F93CF93DF93FC01818562
:104120009285A385B4850196A11DB11D84179507BD
:10413000A607B70710F480E05BC083889488A58841
:10414000B6888789803129F4BB27A72F962F852F22
:1041500009C0DB01CA01C7E0B695A7959795879579
:10416000CA95D1F7E9016A017B018F01BC01CD013C
:10417000680D791D8A1D9B1D80901201909013017E
:10418000A0901401B0901501681579058A059B056A
:1041900091F4F80187898031A1F4DD24EE24FF2415
:1041A000C601880F991FFC01EB59FC4F808191815A
:1041B000A0E0B0E018C040E00E9423208111E9CFC8
:1041C000BACFE894C7F8DD24EE24FF24C601880F97
:1041D000991F880F991FFC01EB59FC4F8081918139
:1041E000A281B381BF7088839983AA83BB8381E056
:1041F000DF91CF911F910F91FF90EF90DF90CF90C3
:10420000BF90AF909F908F9008954F925F926F9262
:104210007F92AF92BF92CF92DF92EF92FF920F9375
:104220001F93CF93DF9300D000D0CDB7DEB78C01C2
:1042300049835A836B837C835901C12CD12C76012D
:10424000412C82E0582E612C712C49815A816B815E
:104250007C819E012F5F3F4FC8010E9482208823EE
:1042600051F1D301C201F801058404C0880F991FE0
:10427000AA1FBB1F0A94D2F7C80ED91EEA1EFB1E46
:1042800049815A816B817C818789803129F088EF4F
:104290009FEFAFEFBFE004C088EF9FEFA0E0B0E07A
:1042A000481759076A077B0780F2F501C082D1825F
:1042B000E282F38281E00F900F900F900F90DF91D8
:1042C000CF911F910F91FF90EF90DF90CF90BF9013
:1042D000AF907F906F905F904F9008954F925F9254
:1042E0006F927F928F929F92AF92BF92CF92DF9206
:1042F000EF92FF920F931F93CF93DF93EC01423025
:1043000051056105710510F480E078C089859A85B2
:10431000AB85BC850196A11DB11D84179507A60725
:10432000B70790F3CB88DC88ED88FE888F898031D1
:1043300029F4BB27A72F962F852F09C0DB01CA01BF
:10434000E7E0B695A79597958795EA95D1F7480147
:1043500059012A013B01C80ED91EEA1EFB1E80919D
:10436000120190911301A0911401B0911501C8168A
:10437000D906EA06FB0681F48F898031A9F4B301DE
:10438000A201552766277727440F551FFA01EB59DD
:10439000FC4F9182808219C040E0C701B6010E94A3
:1043A00023208111E9CFB0CFB301A2014F77552768
:1043B00066277727440F551F440F551FFA01EB5905
:1043C000FC4F80829182A282B382809162038160DD
:1043D000809362038A89823080F08D819E81AF81D3
:1043E000B885C80ED91EEA1EFB1EC0925E03D0928D
:1043F0005F03E0926003F092610381E0DF91CF916F
:104400001F910F91FF90EF90DF90CF90BF90AF90F2
:104410009F908F907F906F905F904F9008952F9214
:104420003F924F925F926F927F929F92AF92BF9214
:10443000CF92DF92EF92FF920F931F93CF93DF9370
:10444000CDB7DEB760970FB6F894DEBF0FBECDBF15
:104450005C0149875A876B877C871901D901CD9008
:10446000DD90ED90FC90C114D104E104F10431F031
:10447000BFEFCB1ADB0AEB0AFB0A10C0FC01C080BD
:10448000D180E280F3809924939409851A852B8545
:104490003C85013011052105310509F0912CF5010C
:1044A00081859285A385B4858C019D010F5F1F4F87
:1044B0002F4F3F4F0D871E872F87388B26013701DF
:1044C0001D821E821F821886F50181859285A38533
:1044D000B4850D811E812F813885081719072A0799
:1044E0003B0708F056C02D853E854F855889241519
:1044F00035054605570550F482E0482E512C612CB5
:10450000712C92E0C92ED12CE12CF12C9E012F5F51
:104510003F4FB301A201C5010E9482208823C9F147
:1045200049815A816B817C81D301C2010196A11D11
:10453000B11D452B462B472B19F06C017D010FC097
:10454000AC01BD014C195D096E097F0909851A8509
:104550002B853C85041715072607370779F02D8131
:104560003E814F8158852F5F3F4F4F4F5F4F2D83C7
:104570003E834F8358872C013D01A6CF0FEF1FEFDD
:104580002FEF3FE0B301A201C5010E946E2181110E
:1045900018C080E041C0D301C2010197A109B1094F
:1045A0008D839E83AF83B88793018201AC01BD01E7
:1045B000C5010E946E21882361F34D805E806F806B
:1045C0007884C414D504E604F70428F3D1014D918E
:1045D0005D916D917C91411551056105710599F4CD
:1045E000F101C082D182E282F3829920A1F0FFEF33
:1045F000CF1ADF0AEF0AFF0AD501CD92DD92ED92C4
:10460000FC92139708C097018601C5010E946E2194
:104610008111E6CFBECF81E060960FB6F894DEBF81
:104620000FBECDBFDF91CF911F910F91FF90EF9003
:10463000DF90CF90BF90AF909F907F906F905F90F2
:104640004F903F902F900895AF92BF92CF92DF92FC
:10465000EF92FF920F931F93CF93DF9300D000D080
:10466000CDB7DEB75C016A017B0182E090E0A0E09B
:10467000B0E0F50180839183A283B3839E012F5F15
:104680003F4FB701A601C5010E948220882311F186
:1046900000E010E09801B701A601C5010E946E215B
:1046A0008823C1F0C980DA80EB80FC80F50187891E
:1046B000803129F088EF9FEFAFEFBFE004C088EFB3
:1046C0009FEFA0E0B0E0C816D906EA06FB06B0F2FC
:1046D00081E001C080E00F900F900F900F90DF916C
:1046E000CF911F910F91FF90EF90DF90CF90BF90EF
:1046F000AF9008958F929F92AF92BF92CF92DF9228
:10470000EF92FF920F931F93CF93DF93EC01142F3F
:104710007093640360936303442369F1453010F0A0
:1047200080E0F2C040E060E070E0CB010E94232016
:104730008823B1F320E1129FA00111244B5A5C4F52
:10474000FA01E254FE4F80818F7751F73C968081C9
:104750009181A281B38184369105A105B10500F351
:104760003497C080D180E280F380C114D104E10489
:10477000F10421F4D5CFC12CD12C760140E0C70142
:10478000B6010E942320882359F2809170039091F2
:1047900071038115924021F690917503992309F4D4
:1047A000BFCF2091730330917403232B09F4B8CF4A
:1047B00080917203882309F4B3CF9A8B8C831D8672
:1047C00090E041E050E02D85E22FBA01022E02C0B8
:1047D000660F771F0A94E2F78617970731F031E0EA
:1047E000320F3D87283078F39BCF20917B033091A7
:1047F0007C032115310519F040E050E008C02091FC
:10480000890330918A0340918B0350918C032D834F
:104810003E834F83588780917303909174034601C0
:104820005701880E991EA11CB11C8B8A9C8AAD8AE7
:10483000BE8A0091760310917703198F088FA0919B
:104840007503B0E00E946330860E971EA81EB91E45
:104850008A8E9B8EAC8EBD8E85E0000F111F8A95CF
:10486000E1F701501E4F012F11270695800E911E72
:10487000A11CB11C8E869F86A88AB98A20917803D4
:10488000309179032115310521F0A90160E070E034
:1048900008C0409185035091860360918703709111
:1048A0008803D701C60188199909AA09BB09840F91
:1048B000951FA61FB71F04C0B695A7959795879516
:1048C000EA95D2F789879A87AB87BC87853F2FE027
:1048D0009207A105B10510F48CE014C0853F9F4FED
:1048E000A105B10510F480E10DC080919103909174
:1048F0009203A0919303B09194038A8F9B8FAC8F06
:10490000BD8F80E28F8B81E0DF91CF911F910F915E
:10491000FF90EF90DF90CF90BF90AF909F908F90DF
:104920000895FC01918D228D892F90E0805C9F4F2E
:10493000821B91098F7399270895FC01918D828DB7
:10494000981731F0828DE80FF11D858D90E0089564
:104950008FEF9FEF0895FC01918D828D981761F084
:10496000828DDF01A80FB11D5D968C91928D9F5FA6
:104970009F73928F90E008958FEF9FEF089584E1E9
:1049800096E2892B49F080E090E0892B29F00E9483
:10499000142681110C9400000895FC01848DDF0120
:1049A000A80FB11DA35ABF4F2C91848D90E00196A2
:1049B0008F739927848FA689B7892C93A089B18991
:1049C0008C9180648C93938D848D981306C002889B
:1049D000F389E02D80818F7D80830895EF92FF928F
:1049E0000F931F93CF93DF93EC0181E0888F9B8D12
:1049F0008C8D981305C0E889F989808185FD24C0D4
:104A0000F62E0B8D10E00F5F1F4F0F731127E02E56
:104A10008C8DE8120CC00FB607FCFACFE889F98933
:104A2000808185FFF5CFCE010E94CD24F1CF8B8D03
:104A3000FE01E80FF11DE35AFF4FF0820B8FEA8968
:104A4000FB898081806207C0EE89FF896083E889E5
:104A5000F98980818064808381E090E0DF91CF914B
:104A60001F910F91FF90EF900895CF93DF93EC018A
:104A7000888D8823C9F0EA89FB89808185FD05C07E
:104A8000A889B9898C9186FD0FC00FB607FCF5CFB8
:104A9000808185FFF2CFA889B9898C9185FFEDCF00
:104AA000CE010E94CD24E7CFDF91CF910895CF9220
:104AB000DF92EF92FF921F93CF93DF93EC016A0195
:104AC0007B01122FE889F98982E080834115514EDC
:104AD00061057105B1F060E079E08DE390E0A70138
:104AE00096010E941C30DA01C9010197A109B109A0
:104AF000B695A795979587959C01211580E1380774
:104B0000A8F0E889F989108260E874E88EE190E005
:104B1000A70196010E941C30DA01C9010197A10981
:104B2000B109B695A795979587959C01EC85FD856C
:104B30003083EE85FF852083188EEC89FD891083F4
:104B4000EA89FB89808180618083EA89FB89808191
:104B500088608083EA89FB89808180688083EA8914
:104B6000FB8980818F7D8083DF91CF911F91FF90A2
:104B7000EF90DF90CF9008951F920F920FB60F9293
:104B800011242F938F939F93EF93FF93E0917505DB
:104B9000F09176058081E0917B05F0917C0582FDA6
:104BA00012C0908180917E058F5F8F7320917F0569
:104BB000821751F0E0917E05F0E0EB59FA4F958FA6
:104BC00080937E0501C08081FF91EF919F918F912D
:104BD0002F910F900FBE0F901F9018951F920F925C
:104BE0000FB60F9211242F933F934F935F936F93C0
:104BF0007F938F939F93AF93BF93EF93FF9385E63C
:104C000095E00E94CD24FF91EF91BF91AF919F91CC
:104C10008F917F916F915F914F913F912F910F9065
:104C20000FBE0F901F90189585E695E00E94912485
:104C300021E0892B09F420E0822F0895E5E6F5E0D4
:104C40001382128288EE93E0A0E0B0E08483958323
:104C5000A683B78387EE91E09183808385EC90E013
:104C60009587848784EC90E09787868780EC90E036
:104C7000918B808B81EC90E0938B828B82EC90E027
:104C8000958B848B86EC90E0978B868B118E128EA1
:104C9000138E148E089508950E94982B0E944B261F
:104CA0000E94E607CFEBD4E20E94E4012097E1F3F3
:104CB0000E94BF24F9CFCF92DF92EF92FF920F9321
:104CC0001F93CF93DF936C017A018B01C0E0D0E09A
:104CD000CE15DF0581F0D8016D918D01D601ED91E2
:104CE000FC910190F081E02DC6010995892B11F00E
:104CF0002196EECF7E01C701DF91CF911F910F91D9
:104D0000FF90EF90DF90CF9008956115710579F0D5
:104D1000FB0101900020E9F73197AF01461B570BCB
:104D2000DC01ED91FC910280F381E02D099480E09B
:104D300090E00895EF92FF920F931F93CF93DF932C
:104D40008C017B01C0E0D0E0F701EC0FFD1F649106
:104D5000662361F0D801ED91FC910190F081E02D86
:104D6000C8010995892B11F02196EECFCE01DF9174
:104D7000CF911F910F91FF90EF900895DB01149652
:104D80004D915C9115976D917C91DC01ED91FC91B9
:104D90000280F381E02D0994DC01ED91FC910190FA
:104DA000F081E02D099463EF71E00C9485260F9358
:104DB0001F93CF93DF93EC010E949A268C01CE01C2
:104DC0000E94D326800F911FDF91CF911F910F91E9
:104DD00008950F931F93CF93DF93EC010E94BE269B
:104DE0008C01CE010E94D326800F911FDF91CF91BD
:104DF0001F910F9108950F931F93CF93DF93EC01B1
:104E00000E9485268C01CE010E94D326800F911F1F
:104E1000DF91CF911F910F9108958F929F92AF9242
:104E2000BF92EF92FF920F931F93CF93DF93CDB773
:104E3000DEB7A1970FB6F894DEBF0FBECDBF7C01E1
:104E4000FA01CB0119A2223008F42AE08E010F5D8D
:104E50001F4F822E912CA12CB12CBF01A5019401D2
:104E60000E941C30F901CA01015011096A3014F482
:104E7000605D01C0695CD8016C93232B242B252B2A
:104E800061F7B801C7010E948526A1960FB6F89474
:104E9000DEBF0FBECDBFDF91CF911F910F91FF906D
:104EA000EF90BF90AF909F908F900895211531059E
:104EB00041F4DC01ED91FC910190F081E02D642F33
:104EC00009940C940D279A01462F50E060E070E0A1
:104ED0000C9456270F931F93CF93DF93EC010E94FE
:104EE00063278C01CE010E94D326800F911FDF9192
:104EF000CF911F910F910895CF92DF92EF92FF9281
:104F00000F931F93CF93DF932115310581F4DC01BB
:104F1000ED91FC910190F081E02D642FDF91CF9114
:104F20001F910F91FF90EF90DF90CF9009942A305E
:104F3000310501F577FF1DC06A017B01EC016DE2CF
:104F40000E94CC268C0144275527BA014C195D09D3
:104F50006E097F092AE0CE010E940D27800F911F64
:104F6000DF91CF911F910F91FF90EF90DF90CF9045
:104F700008952AE0DF91CF911F910F91FF90EF905C
:104F8000DF90CF900C940D279A01AB01770F660B41
:104F9000770B0C947C270F931F93CF93DF93EC0137
:104FA0000E94C4278C01CE010E94D326800F911F3E
:104FB000DF91CF911F910F9108950F931F93CF937E
:104FC000DF93EC010E942B2B688779878A879B8768
:104FD000E881F9810680F781E02DCE01099597FFE0
:104FE00017C00E942B2B088519852A853B85DC017B
:104FF000CB01801B910BA20BB30B0C811D812E8169
:105000003F8180179107A207B30710F38FEF9FEF3F
:10501000DF91CF911F910F9108950F931F93CF931D
:10502000DF93EC010E942B2B688779878A879B8707
:10503000E881F9810084F185E02DCE01099597FF83
:1050400017C00E942B2B088519852A853B85DC011A
:10505000CB01801B910BA20BB30B0C811D812E8108
:105060003F8180179107A207B30710F38FEF9FEFDF
:10507000DF91CF911F910F910895FF920F931F938E
:10508000CF93DF93EC018B01F42ECE010E940D280B
:1050900097FD2DC08D32910519F19C0120533109E6
:1050A0002A30310520F1FF2019F08E329105D1F020
:1050B00001301105D1F00230110551F48D30910508
:1050C00039F024F40997029718F00FC0809769F41B
:1050D000E881F9810680F781E02DCE010995D5CFD1
:1050E0008DE201C08EE290E002C08FEF9FEFDF9172
:1050F000CF911F910F91FF900895BF92CF92DF92B1
:10510000EF92FF920F931F93CF93DF938C01C42FE5
:1051100040E00E943D28FC0197FD47C0C12CD12CE6
:105120007601B12C0C2E000CDD0BEC17FD0709F1FC
:10513000ED32F105E1F0CF01C0970A97D0F4AAE073
:10514000B0E0A70196010E9463306F01FF0FEE08E7
:10515000FF08DC01CB018C0D9D1DAE1DBF1D6C0138
:105160007D0120E3C21AD108E108F10802C0BB2486
:10517000B394D801ED91FC910680F781E02DC80130
:105180000995C8010E940D28FC01C0970A9768F292
:10519000CE17DF0751F2BB2061F066277727CB01DE
:1051A0006C197D098E099F0906C060E070E0CB0193
:1051B00002C0C701B601DF91CF911F910F91FF90FF
:1051C000EF90DF90CF90BF900895EF92FF920F93F2
:1051D0001F93CF93DF93EC017B01042F65EF71E008
:1051E0000E947B29C7010E94DD27002E000C110BB5
:1051F00097FD0BC08017910741F0682FCE010E94E8
:10520000642AC7010E94DD27F3CFCE01DF91CF9141
:105210001F910F91FF90EF900895FC018081918183
:105220000C942931CF93DF93EC0188819981009709
:1052300011F00E942931198218821D821C821B8262
:105240001A82DF91CF9108950F931F93CF93DF932D
:10525000EC018B016F5F7F4F888199810E94B23191
:10526000009731F0998388831B830A8381E001C012
:1052700080E0DF91CF911F910F910895CF93DF933D
:10528000EC0188819981892B29F08A819B8186177D
:10529000970760F4CE010E942429882341F08C8175
:1052A0009D81892B19F4E881F981108281E0DF91D9
:1052B000CF910895EF92FF920F931F93CF93DF93B7
:1052C000EC017B018A01BA010E943E29811104C0D0
:1052D000CE010E94122907C01D830C83B70188816B
:1052E00099810E94D832CE01DF91CF911F910F9109
:1052F000FF90EF900895FC011182108213821282B8
:10530000158214826115710551F0FB010190002096
:10531000E9F73197AF01461B570B0C945A290895B2
:10532000CF93DF93EC01FB018617970761F0608153
:1053300071816115710529F0448155810E945A29B6
:1053400002C00E941229CE01DF91CF910895FC0185
:105350001182108213821282158214820C94902979
:10536000CF93DF93EC016115710559F0FB010190BA
:105370000020E9F73197AF01461B570B0E945A29CD
:1053800002C00E941229CE01DF91CF9108950F93A0
:105390001F93CF93DF93CDB7DEB729970FB6F8945D
:1053A000DEBF0FBECDBF8C01862FF80111821082A7
:1053B000138212821582148250E0BE016F5F7F4F0C
:1053C00090E00E944133BE016F5F7F4FC8010E9491
:1053D000B02929960FB6F894DEBF0FBECDBFDF917E
:1053E000CF911F910F9108950F931F93CF93DF9348
:1053F000CDB7DEB762970FB6F894DEBF0FBECDBF54
:105400008C01CB01F8011182108213821282158265
:10541000148250E0BE016F5F7F4F0E941633BE01C1
:105420006F5F7F4FC8010E94B02962960FB6F89453
:10543000DEBF0FBECDBFDF91CF911F910F910895B9
:10544000EF92FF920F931F93CF93DF936115710536
:1054500011F480E01CC041155105C1F07B01EC0145
:105460008C819D818A01080F191FB801CE010E940D
:105470003E29882371F3288139818C819D81B70170
:10548000820F931F0E94D8321D830C8381E0DF912D
:10549000CF911F910F91FF90EF900895FB014481F0
:1054A0005581608171810C94202A6115710551F03C
:1054B000FB0101900020E9F73197AF01461B570B24
:1054C0000C94202A80E00895CF93DF9300D0CDB7CD
:1054D000DEB769831A8241E050E0BE016F5F7F4F03
:1054E0000E94202A0F900F90DF91CF910895CF93C3
:1054F000DF93EC01FB0144815581608171810E9441
:10550000202A811103C0CE010E941229CE01DF9111
:10551000CF910895CF93DF93EC016115710561F090
:10552000FB0101900020E9F73197AF01461B570BB3
:105530000E94202A811103C0CE010E941229CE01AF
:10554000DF91CF910895FC012481358162177307A3
:1055500020F480819181009729F41092020682E064
:1055600096E00895860F971F0895CF93DF93FC016F
:10557000248135814217530780F4FB01DC01CD9172
:10558000DC9160817181CE01840F951F0E94FC32F5
:10559000009719F08C1B9D0B02C08FEF9FEFDF91DE
:1055A000CF91089540E050E00C94B52AFC01808131
:1055B0009181009711F00C94783260E070E0CB019B
:1055C00008951F920F920FB60F9211242F933F93BD
:1055D0008F939F93AF93BF9380910406909105069C
:1055E000A0910606B09107063091030623E0230F31
:1055F0002D3720F40196A11DB11D05C026E8230F0B
:105600000296A11DB11D209303068093040690937A
:105610000506A0930606B0930706809108069091B0
:105620000906A0910A06B0910B060196A11DB11DB5
:105630008093080690930906A0930A06B0930B0680
:10564000BF91AF919F918F913F912F910F900FBE7E
:105650000F901F9018952FB7F894609104067091E1
:10566000050680910606909107062FBF08953FB763
:10567000F8948091080690910906A0910A06B091CD
:105680000B0626B5A89B05C02F3F19F00196A11D5A
:10569000B11D3FBFBA2FA92F982F8827820F911DC8
:1056A000A11DB11DBC01CD0142E0660F771F881F0F
:1056B000991F4A95D1F708958F929F92AF92BF920A
:1056C000CF92DF92EF92FF926B017C010E94372B09
:1056D0004B015C01C114D104E104F10401F10E9409
:1056E00007300E94372BDC01CB0188199909AA09E0
:1056F000BB09883E9340A105B10560F321E0C21AC1
:10570000D108E108F10888EE880E83E0981EA11CFC
:10571000B11CC114D104E104F10419F7DBCFFF90EF
:10572000EF90DF90CF90BF90AF909F908F900895B3
:10573000789484B5826084BD84B5816084BD85B56C
:10574000826085BD85B5816085BDEEE6F0E0808133
:1057500081608083E1E8F0E0108280818260808354
:10576000808181608083E0E8F0E0808181608083D7
:10577000E1EBF0E0808184608083E0EBF0E0808109
:1057800081608083EAE7F0E08081846080838081AB
:105790008260808380818160808380818068808353
:1057A0001092C1000895833081F028F4813099F07F
:1057B0008230A1F008958730A9F08830B9F08430A4
:1057C000D1F4809180008F7D03C0809180008F771D
:1057D00080938000089584B58F7702C084B58F7D53
:1057E00084BD08958091B0008F7703C08091B00090
:1057F0008F7D8093B0000895CF93DF9390E0FC01FC
:10580000EF5DFC4F2491FC01EB5CFC4F84918823FD
:1058100061F190E0880F991FFC01E35AFC4FC5919C
:10582000D491FC01ED5AFC4FA591B491611109C0CE
:105830009FB7F8948881209582238883EC912E234A
:105840000BC0623061F49FB7F8948881322F309595
:1058500083238883EC912E2B2C939FBF06C08FB798
:10586000F894E8812E2B28838FBFDF91CF91089584
:105870001F93CF93DF93282F30E0F901E35FFC4FB4
:105880008491F901EF5DFC4FD491F901EB5CFC4F81
:10589000C491CC23C1F0162F81110E94D32BEC2F81
:1058A000F0E0EE0FFF1FED5AFC4FA591B4919FB7AA
:1058B000F894111104C08C91D095D82302C0EC91BA
:1058C000DE2BDC939FBFDF91CF911F910895CF9383
:1058D000DF93282F30E0F901E35FFC4F8491F90159
:1058E000EF5DFC4FD491F901EB5CFC4FC491CC23EC
:1058F00091F081110E94D32BEC2FF0E0EE0FFF1FEF
:10590000E75BFC4FA591B491EC91ED2381E090E031
:1059100021F480E002C080E090E0DF91CF91089513
:1059200080913C0690E020913D06821B91090895EC
:1059300090913D0680913C06981750F4E92FF0E0D5
:10594000E25CF94F208130E09F5F90933D0602C0FA
:105950002FEF3FEFC9010895E0913D0680913C068D
:10596000E81730F4F0E0E25CF94F808190E00895B0
:105970008FEF9FEF08950895CF92DF92EF92FF92FD
:105980000F931F93CF93DF937C01CB018A0120916A
:105990001806222389F0EB016B01C40ED51ECC152D
:1059A000DD0569F06991D701ED91FC910190F081DD
:1059B000E02DC7010995F3CF642F0E94B12EC801D5
:1059C000DF91CF911F910F91FF90EF90DF90CF90DB
:1059D0000895CF93DF931F92CDB7DEB769832091EF
:1059E00018062223D1F020911906203240F021E040
:1059F00030E0FC013383228380E090E015C0809189
:105A00001A06E82FF0E0E55EF94F998190838F5FE9
:105A100080931A068093190605C061E0CE010196B5
:105A20000E94B12E81E090E00F90DF91CF91089518
:105A3000FC011382128288EE93E0A0E0B0E0848340
:105A40009583A683B78386E092E09183808308954F
:105A500010923D0610923C0610921A0610921906FA
:105A60000C94F52D81E08093180660933B0610920C
:105A70001A061092190608950C94322D0F93062FD2
:105A800021E0409119066BE176E080913B060E948F
:105A90005B2E10921A0610921906109218060F919A
:105AA00008954F925F926F927F92AF92BF92CF9282
:105AB000EF92FF920F931F93CF93DF935C01F62E2B
:105AC000D42F28013901EE2021F10E94322DCE2D54
:105AD000C43008F0C3E0C150C0F028E0C29FC0014C
