:100000000C94F6010C941E020C941E020C947A0CB3
:100010000C947A0C0C947A0C0C941E020C941E0214
:100020000C941E020C941E020C941E020C941E02D0
:100030000C941E020C941E020C941E020C941E02C0
:100040000C94F1290C941E020C94F9240C942B2589
:100050000C941E020C941E020C941E020C941E02A0
:100060000C94C22D0C941E026F1374137F137F1314
:100070007F137F138413861389134F6F6F70732060
:100080002E2E2E20756E61626C6520746F20726555
:100090006164207468652072657175657374656448
:1000A0002070616765213F004441544120746964B8
:1000B000616B20646974656D756B616E0047616783
:1000C000616C00426572686173696C0052554E4EF6
:1000D00000556E6B6E6F776E206572726F720045A1
:1000E00072726F722077726974696E6720746F2004
:1000F000666C61736800436F756C64206E6F74206A
:1001000073746F726520696E2074686174206C6FFF
:10011000636174696F6E00436F6D6D756E696361C5
:1001200074696F6E206572726F720053746F7265BE
:10013000642100556E6B6E6F776E206572726F7200
:100140000046696E6765727072696E7473206469C7
:1001500064206E6F74206D6174636800436F6D6D11
:10016000756E69636174696F6E206572726F72007B
:10017000494420005072696E7473206D6174636825
:1001800065642100556E6B6E6F776E206572726FBD
:100190007200436F756C64206E6F742066696E64C4
:1001A0002066696E6765727072696E74206665613B
:1001B000747572657300436F756C64206E6F742084
:1001C00066696E642066696E6765727072696E74C6
:1001D00020666561747572657300436F6D6D756E31
:1001E00069636174696F6E206572726F7200496D28
:1001F00061676520746F6F206D657373790043725A
:10020000656174696E67206D6F64656C20666F72DE
:10021000202300496D61676520636F6E7665727497
:10022000656400506C6163652073616D652066696B
:100230006E67657220616761696E004944200055F0
:100240006E6B6E6F776E206572726F7200436F75A2
:100250006C64206E6F742066696E642066696E67D8
:1002600065727072696E742066656174757265730B
:1002700000436F756C64206E6F742066696E642035
:1002800066696E6765727072696E74206665617406
:100290007572657300436F6D6D756E696361746926
:1002A0006F6E206572726F7200496D6167652074B0
:1002B0006F6F206D657373790052656D6F76652081
:1002C00066696E67657200496D61676520636F6E70
:1002D0007665727465640057616974696E6720663B
:1002E0006F722076616C69642066696E6765722042
:1002F000746F20656E726F6C6C20617320230055E3
:100300006E6B6E6F776E206572726F7200496D61F1
:1003100067696E67206572726F7200436F6D6D75ED
:100320006E69636174696F6E206572726F72002E00
:1003300000496D6167652074616B656E00456E7282
:100340006F6C6C696E6720494420230046696E67B4
:1003500065727072696E7473206E6F7420666F754B
:100360006E6400466F756E642066696E67657270B4
:1003700072696E74007C3C3E5E2B3D3F2F5B5D3BA3
:100380002C2A225C00000000080002010000030487
:1003900007000000000000000001020408102040D7
:1003A0008001020408102001020408102004040443
:1003B000040404040402020202020203030303030E
:1003C0000300000000230026002900000000002593
:1003D0000028002B0000000000240027002A000055
:1003E0005D04F61103185B25C12C770411241FBE90
:1003F000CFEFD8E0DEBFCDBF11E0A0E0B1E0EEE28C
:10040000F5E602C005900D92AE3EB107D9F726E0A1
:10041000AEEEB1E001C01D92A03BB207E1F711E0E2
:10042000C5EFD1E004C02197FE010E94452FC03FD7
:10043000D107C9F70E9489250C948A320C940000D8
:1004400040E051EE60E070E08FEE91E00E944912D2
:100450008FEE91E00E940314882331F063E673E08D
:1004600081E495E00C9414266CE473E081E495E05B
:100470000E94142661E070E080E090E00E946C2A07
:10048000F9CF8130910589F02CF4892B89F461E34F
:1004900073E010C08230910529F0039749F46DE0B4
:1004A00073E008C06FE273E005C06BE173E002C067
:1004B0006FEF72E081E495E00C941426CF93DF9304
:1004C000EC01CD2B51F08FEE91E00E940A14C82F61
:1004D000D0E0CE010E944102F4CFDF91CF91089588
:1004E000CF9367ED72E081E495E00E94D7254AE062
:1004F00050E06091EE0181E495E00E94A7268FEF25
:100500009FEF0E945E0261E08FEE91E00E9448142E
:10051000C82F863011F138F4882361F0813019F545
:1005200065E972E0E1C08730D9F08531E1F46DE42E
:1005300072E0DAC067EC72E081E495E00E94142674
:1005400069EB72E081E495E00E94142660ED77E0AB
:1005500080E090E00E946C2A09C069EA72E0C4C0A1
:1005600061E772E0C1C06FE372E0BEC08FEE91E060
:100570000E940A148230D1F76BE372E081E495E0C7
:100580000E94D7254AE050E06091EE0181E495E0B9
:100590000E94A72663E272E081E495E00E9414269F
:1005A0008FEF9FEF0E945E0262E08FEE91E00E946B
:1005B0004814C82F863061F138F4882361F0813007
:1005C00069F56AED71E090C0873029F1853131F528
:1005D00062E971E089C063E172E081E495E00E9424
:1005E00014266EEF71E081E495E00E94D7254AE081
:1005F00050E06091EE0181E495E00E94A7268FEE25
:1006000091E00E948914C82F90E00097C1F509C0BD
:100610006EEE71E069C066EB71E066C064E871E09F
:1006200063C064E771E081E495E00E94142660E70E
:1006300071E081E495E00E94D7254AE050E06091A6
:10064000EE0181E495E00E94A7266091EE0170E042
:100650008FEE91E00E94C714C82F90E0009711F52B
:100660006BE271E081E495E00E9414264AE050E0DC
:1006700060E070E081E495E00E9408273AC0813094
:10068000910519F46CE571E012C00A9741F461E438
:1006900071E081E495E00E941426CAE029C063E37A
:1006A00071E022C08130910541F467E171E081E49D
:1006B00095E00E941426C1E01BC08B30910541F4E7
:1006C00066EF70E081E495E00E941426CBE010C054
:1006D000489741F46FED70E081E495E00E941426A4
:1006E000C8E106C061ED70E081E495E00E94142647
:1006F0008C2FCF91089564E08CEE92E00E9443101D
:10070000811103C060E171E002C067E271E081E441
:1007100095E00C94382626E040E052EC61E070E071
:1007200081E495E00E9494240E947B030C942002B3
:10073000FF920F931F93CF93DF93CDB7DEB76B97E5
:100740000FB6F894DEBF0FBECDBF8C01F62E65E369
:1007500071E0CE0101960E94B828B801CE01019641
:100760000E948729BC0181E495E00E942626CE01E3
:1007700001960E944A28F801608171818CEE92E016
:100780000E94EB11B801882309F450C0CE010196F4
:100790000E94E42866E471E0CE0101960E949A2945
:1007A000BC0181E495E00E942626CE0101960E94BC
:1007B0004A28F80140815181F11002C023E101C0B3
:1007C00021E06CEE72E0CE0101960E9461118B81F6
:1007D0009C819093500280934F028D819E81AF81C6
:1007E000B8858093510290935202A0935302B09324
:1007F000540289859A85AB85BC8580935502909378
:100800005602A0935702B0935802DE011D96E9E507
:10081000F2E08D91819382E0E636F807D1F78A8D78
:100820009B8D909367028093660213C0CE01019660
:100830000E94E4286CE471E0CE0101960E949A299E
:10084000BC0181E495E00E942626CE0101960E941B
:100850004A286B960FB6F894DEBF0FBECDBFDF916E
:10086000CF911F910F91FF9008950F931F93CF93F6
:10087000DF93EC018B018DE492E00E94340F88231A
:1008800089F0BE018DE492E0012B19F40E94FB2552
:1008900002C00E9426268DE492E00E94220F81E091
:1008A00090E002C080E090E0DF91CF911F910F9126
:1008B00008958DE492E00C94220F8DE492E00E9462
:1008C000C00E46E065E086E392E00E94830820E0E7
:1008D00043E062E087E192E00E944D0D20E030E0CD
:1008E000A90167E172E08FEE91E00C94361287E186
:1008F00092E00C94F40C81E495E00E94CE23892BC5
:10090000D1F341E060E070E081E495E00E94BA2715
:10091000862F662381F308950E947B048093EE0165
:10092000882391F06DE373E081E495E00E94D72580
:100930004AE050E06091EE0181E495E00E94A72634
:100940000E9470028823E1F381E008952F923F9284
:100950004F925F926F927F928F929F92AF92BF92CF
:10096000CF92DF92EF92FF920F931F93CF93DF937B
:10097000CDB7DEB7CE55D1090FB6F894DEBF0FBEA6
:10098000CDBF4C016D967FAF6EAF6D976F965FAF29
:100990004EAF6F9719018E01075B1F4F61ED71E03C
:1009A000C8010E94B82861ED71E0C80106960E9456
:1009B000B8288DE492E00E94340F9E012F5F3F4FD4
:1009C0007901882309F401C12901690161ED71E010
:1009D000C6010E94B82836E0C30ED11CC016D1064D
:1009E000A9F7C12CD12C96E0792E8DE492E00E94DB
:1009F000F30E892B09F464C04AE06DE472E0CE0185
:100A00008B5A9F4F0E942228A12CB12C6B968EAD41
:100A10009FAD6B97A816B90608F04CC0B501CE0182
:100A20008B5A9F4F0E94B329FC018081082E000C35
:100A3000990B0E948731B501892B39F5CE018B5A6C
:100A40009F4F0E94B329FC0180818D3009F408C1B9
:100A5000B501CE018B5A9F4F0E94B329FC018081C2
:100A60008A3009F4FDC0B501CE018B5A9F4F0E9418
:100A7000B329FC0180818B3309F4F2C0B501CE01AA
:100A80008B5A9F4F0E94B329B501CE018B5A9F4FBD
:100A90000E94B3297C9C90017D9C300D1124FC01A7
:100AA0006081C9018E0D9F1D0E947429FFEFAF1A4E
:100AB000BF0AACCFCE018B5A9F4F0E944A2895CFD8
:100AC000612C712CC614D70409F46DC05201B40115
:100AD000C2010E94E2294AE050E0BC0181E495E0B5
:100AE0000E940827B401C2010E94E22926E0420EBA
:100AF000511C019609F459C0B501CE018B5A9F4F84
:100B00000E94E428C12CD12C812C912C712C86E0E0
:100B1000582E66246394F50184819581C816D90600
:100B2000E8F5772019F1B601CE018B5A9F4F0E944C
:100B3000B329FC018081082E000C990B0E9487319B
:100B4000892BA1F0B601CE018B5A9F4F0E94B32989
:100B5000589C9001599C300D1124FC016081C90101
:100B6000800F911F0E947429F1016082B601CE01AD
:100B70008B5A9F4F0E94B329FC018081082E000CE4
:100B8000990B0E948731892B29F4FFEF8F1A9F0A56
:100B9000772473942FEFC21AD20ABDCFCE018B5A9D
:100BA0009F4F0E944A28680106C0F1011082FFEFA2
:100BB0006F1A7F0A87CF26E0C21AD108C6010E94A9
:100BC0004A28EC14FD04B9F715C06BE571E0C901C2
:100BD0000E94B828B401C7010E94872967E871E024
:100BE0000E949A29BC0181E495E00E942626C70153
:100BF0000E944A28780136E0E30EF11CC7010E94EA
:100C0000E6296F96EEADFFAD6F9771836083C801E3
:100C10000E94E6296D96EEADFFAD6D9771836083FE
:100C2000C7010E944A28C8010E944A28C25ADF4FC1
:100C30000FB6F894DEBF0FBECDBFDF91CF911F91ED
:100C40000F91FF90EF90DF90CF90BF90AF909F906B
:100C50008F907F906F905F904F903F902F9008956E
:100C6000FFEFCF1ADF0A22CF2F923F924F925F926F
:100C70006F927F928F929F92AF92BF92CF92DF92AC
:100C8000EF92FF920F931F93CF93DF93CDB7DEB711
:100C9000C055D1090FB6F894DEBF0FBECDBF7C01A1
:100CA0004B011A0161963FAF2EAF619761ED71E084
:100CB0000E94B8288DE492E00E94340F9E012F5FBD
:100CC0003F4F5901882309F4BCC029018E01075BFD
:100CD0001F4F690161ED71E0C6010E94B82836E03E
:100CE000C30ED11CC016D106A9F7612C712C8DE45E
:100CF00092E00E94F30E892B09F454C04AE06DE49F
:100D000072E0C8010E942228C12CD12CF8018481F4
:100D10009581C816D90608F041C0B601C8010E94E5
:100D2000B329FC018081082E000C990B0E948731A9
:100D3000B601892BF9F4C8010E94B329FC01808116
:100D40008D3009F494C0B601C8010E94B329FC019A
:100D500080818A3009F48BC0B601C8010E94B32992
:100D6000FC0180818B3309F482C0B601C8010E9466
:100D7000B329B601C8010E94B329F6E0F69D90019F
:100D8000F79D300D1124FC016081C9018A0D9B1D66
:100D90000E947429FFEFCF1ADF0AB8CFC8010E9462
:100DA0004A28A5CFC12CD12C6C147D0409F440C075
:100DB000B401C2010E94E229892B29F0B201C701C6
:100DC0000E945E2929C0B401C7010E945E296CE619
:100DD00071E0C7010E9465294AE0B101C8010E9483
:100DE0000429B801C7010E945E29C8010E944A284F
:100DF0006EE671E0C7010E9465294AE061966EAD1A
:100E00007FAD6197C8010E940429B801C7010E9403
:100E10005E29C8010E944A286AE671E0C7010E9463
:100E200065292FEFC21AD20A36E0430E511CBCCFFF
:100E300006501109C8010E944A28A016B106C1F740
:100E40001AC06BE571E0C9010E94B828B401C50160
:100E50000E94872967E871E00E949A29BC0181E419
:100E600095E00E942626C5010E944A2804C04FEF43
:100E7000641A740A8FCFC701C05BDF4F0FB6F894B6
:100E8000DEBF0FBECDBFDF91CF911F910F91FF90BD
:100E9000EF90DF90CF90BF90AF909F908F907F901A
:100EA0006F905F904F903F902F900895CF92DF9278
:100EB000EF92FF920F931F93CF93DF93CDB7DEB7DF
:100EC000EF970FB6F894DEBF0FBECDBFAE014F5DFA
:100ED0005F4F87E0FA0111928A95E9F700E010E090
:100EE0009E01215C3F4F60E086E392E00E940B0B85
:100EF000882309F4CCC08FAD873009F0C8C06CECF2
:100F000070E081E495E00E941426AE014F5F5F4FD0
:100F100064E086E392E00E94620B182F60E771E0C4
:100F2000CE01C4960E94B828112309F4A6C0BE01C0
:100F30006C5C7F4F81E495E00E94262668EE73E0AA
:100F400080E090E00E946C2A61E871E0CE01889612
:100F50000E94B82861E0CE0188960E949803CE01D5
:100F600088960E944A28BE016C5C7F4FCE0188960D
:100F70000E94E4289E01225C3F4FAE01445C5F4F1B
:100F8000BE01665C7F4FCE0188960E94A604CE010A
:100F900088960E944A288EAD882309F465C00E9475
:100FA0008C04182FCCACDDACEAACFBACBE016C5CA5
:100FB0007F4FCE0188960E94E4289601A701BE01CA
:100FC000685D7F4FCE018E960E943406CE018896D2
:100FD0000E944A28112309F442C00E9459040E9429
:100FE000590461E871E0CE0188960E94B82860E05B
:100FF000CE0188960E949803CE0188960E944A28C6
:10100000BE01625D7F4FCE0188960E94E42860E0B9
:1010100070E0CE0188960E943504CE0188960E9429
:101020004A28BE01625D7F4FCE0188960E94E42867
:1010300060E070E0CE0188960E9435048C01CE01FC
:1010400088960E944A280130110519F463EC70E07B
:1010500002C06DEB70E081E495E00E941426CE01A1
:101060008E960E944A2806C068EA70E081E495E006
:101070000E9414260E94590406C06AE770E081E4C9
:1010800095E00E941426CE01C4960E944A28EF964D
:101090000FB6F894DEBF0FBECDBFDF91CF911F9189
:1010A0000F91FF90EF90DF90CF9008950C9456072A
:1010B00020913C06222399F04FB7F89420913C06EA
:1010C000213059F42DB320933A063DB320913B06CD
:1010D000209523232DBB4FBF02C040933A068CBD01
:1010E0009DBD089580913C06882361F09FB7F894D8
:1010F00020913C0680913A06213019F48DBB9FBFA8
:1011000008958FBF0895CF93DF93EC01862F188247
:1011100019821A821B826C834D831D8A1E8A60E0AD
:101120000E940C2B61E08D81DF91CF910C940C2BF0
:10113000EF92FF920F931F93CF93DF93FC012689C9
:10114000222339F06EBD00000DB407FEFDCF8EB531
:1011500027C0062FEC0161E081810E94482BE12C21
:10116000F12C10E060E089810E94482BC8010E2C10
:1011700002C0959587950A94E2F780FF02C061E06E
:1011800001C060E08A810E94482B61E089810E9451
:10119000482BFFEFEF1AFF0A88E0E816F10411F779
:1011A000DF91CF911F910F91FF90EF900895CF9213
:1011B000DF92EF92FF921F93CF93DF93FC0126897A
:1011C000222339F01EBC00000DB407FEFDCF1EB572
:1011D00026C0EC0161E081810E94482BE12CF12CBA
:1011E00010E0CC24C394D12C8B810E94772B892BC7
:1011F00039F0C6010E2C01C0880F0A94EAF7182BAB
:1012000060E089810E94482B61E089810E94482B1F
:10121000FFEFEF1AFF0A88E0E816F10429F7812FA3
:10122000DF91CF911F91FF90EF90DF90CF900895C5
:101230001F93CF93DF93EC018D89882329F18E8949
:10124000882321F081E790E00E94580860E08881BF
:101250000E94482B62E070E080E090E00E946C2ADF
:1012600062E0CE010E949808CE010E94D708182F94
:1012700061E088810E94482B8E8981110E9472084A
:1012800091E0113031F406C08C810E94772B91E0FF
:10129000811190E0892FDF91CF911F910895CF9216
:1012A000DF92EF92FF921F93CF93DF936C017B014C
:1012B000C0E0D0E0C6010E941809182F811115C0A6
:1012C000E114F10459F02A96EC16FD0638F46CE8A6
:1012D00071E081E495E00E94382607C06AE070E082
:1012E00080E090E00E946C2AE5CF812FDF91CF91C2
:1012F0001F91FF90EF90DF90CF900895CF92DF92F3
:10130000EF92FF920F931F93CF93DF93EC016B014A
:10131000F42E8D89042F10E08823C9F18E8988234B
:1013200021F081E790E00E94580860E088810E94E7
:10133000482B62E070E080E090E00E946C2A63E05D
:10134000CE010E94980876010C0D1D1D0E151F057B
:1013500069F061E070E080E090E00E946C2ACE01CC
:101360000E94D708F70181937F01F0CF61E0888167
:101370000E94482B8E89882369F1DF91CF911F91BC
:101380000F91FF90EF90DF90CF900C94720862E085
:1013900070E080E090E00E946C2A42E04F0D64E231
:1013A00088EE95E00E94BB2C88EE95E00E94A82B69
:1013B000E6010C0D1D1DC017D10761F061E070E062
:1013C00080E090E00E946C2A88EE95E00E94A82BB5
:1013D0008993F1CFDF91CF911F910F91FF90EF9003
:1013E000DF90CF900895CF93DF9300D000D000D04E
:1013F000CDB7DEB746E0BE016F5F7F4F0E947E092A
:1014000046E050E066E071E0CE0101960E94C731EF
:1014100021E0892B09F020E0822F26960FB6F89460
:10142000DEBF0FBECDBFDF91CF910895682F88EE4C
:1014300095E00C94F92BAF92BF92CF92DF92EF928E
:10144000FF920F931F93CF93DF937C018B01FC01DD
:101450008589C1E0C40F882309F464C08689882384
:1014600021F081E790E00E94580860E0F701808158
:101470000E94482B62E070E080E090E00E946C2ABD
:1014800061E0C7010E94980860E0C7010E949808C7
:1014900060E0C7010E9498086FEFC7010E9498089A
:1014A0006C2FC7010E9498086C2F6195C7010E949C
:1014B000980864EDC7010E949808C12C93EDD92EBD
:1014C000D0E02197AC2CB12CAC16BD0664F4A00E74
:1014D000B11EF5016081C7010E949808F501808165
:1014E000D80EC394EFCF6D2D6095C7010E94980868
:1014F00060E0C7010E94980861E0F70180810E94C6
:10150000482BF7018689882309F455C0DF91CF91D4
:101510001F910F91FF90EF90DF90CF90BF90AF9011
:101520000C94720862E070E080E090E00E946C2A07
:1015300064E270E088EE95E00E94422C80E00E9418
:10154000160A80E00E94160A8FEF0E94160A8C2F5E
:101550000E94160A8C2F81950E94160A84ED0E9423
:10156000160AB12C83EDD82ED0E02197EB2CF12C6C
:10157000EC16FD065CF4E00EF11EF70180810E947E
:10158000160AF7018081D80EB394F0CF8D2D809587
:101590000E94160A80E00E94160A88EE95E0DF910C
:1015A000CF911F910F91FF90EF90DF90CF90BF9060
:1015B000AF900C94BE2CDF91CF911F910F91FF90B3
:1015C000EF90DF90CF90BF90AF9008950F931F934F
:1015D000CF93DF93EC0189010E941B0AB801CE0171
:1015E0000E944F09811102C080E010C0CE010E940C
:1015F000F3098823C9F39D89992341F0B801CE01ED
:10160000DF91CF911F910F910C944F09DF91CF91F2
:101610001F910F910895AF92BF92CF92DF92EF92F8
:10162000FF920F931F93CF93DF93EC017A0159013F
:1016300068018AE48093680281E080936902609384
:101640006A02980143E068E672E0CE010E94E60A71
:10165000182F882351F18D89882381F044E168E6B1
:1016600072E0CE010E947E0980916F028130E9F420
:1016700080917402F501808380E007C0B601CE013D
:101680000E944F098111EACF10C09091740289170E
:1016900068F4282F30E0F901E859FD4F9585F701EE
:1016A000E20FF31F90838F5FF0CF10E0812FDF9167
:1016B000CF911F910F91FF90EF90DF90CF90BF904F
:1016C000AF9008950F931F93CF93DF93603410F082
:1016D00080E02AC08A01EC0180E48093680281E006
:1016E0008093690280E380936A0260936B0228EE24
:1016F00033E044E068E672E0CE010E94E60A882307
:1017000039F34AE168E672E0CE010E947E098091D9
:101710006F028111DDCF84E0E0E7F2E0D8010190B3
:101720000D928A95E1F781E0DF91CF911F910F91A2
:1017300008952091EA023091EB0228173907B9F495
:101740009091A8028091A902981789F0E091A802CF
:10175000F0E0E655FD4F80812091A80230E02F5F38
:101760003F4F2F7333272093A80290E008958FEF07
:101770009FEF08951F93CF93DF93DC015C968D91CB
:101780009C915D97009739F421E030E013963C93EB
:101790002E9312973BC05196ED91FC915297509623
:1017A0002C915097322F30951FB75E964C915E97D3
:1017B000742F727041FD6095F8944081772311F089
:1017C000422B01C043234083EC012197F1F748E00D
:1017D000508160FF02C0522B01C053235083EC01A3
:1017E0002197F1F76695415099F78081772319F099
:1017F0008323808302C0282B20831FBF5C968D919A
:101800009C915D970197F1F781E090E0DF91CF9196
:101810001F91089508952091EA023091EB02281754
:10182000390771F49091A8028091A902981741F0AC
:10183000E091A802F0E0E655FD4F808190E0089528
:101840008FEF9FEF08952091EA023091EB02281765
:10185000390771F48091A9022091A80290E0805C80
:101860009F4F821B910960E470E00E94F02E089562
:1018700080E090E00895E091EA02F091EB02E81731
:10188000F90769F4A389B4899C9185898095892396
:101890008C931092EB021092EA0281E0089580E0AE
:1018A0000895CF93DF93EC018A8D9B8D892BF1F006
:1018B0008091EA029091EB02C817D907B9F000971E
:1018C00011F00E943B0C8E8D8E7F8E8F1092A9029C
:1018D0001092A802D093EB02C093EA02EB89FC8934
:1018E00090818D89892B808381E001C080E0DF9128
:1018F000CF9108951F920F920FB60F9211242F933C
:101900003F934F935F936F937F938F939F93AF9387
:10191000BF93EF93FF93E091EA02F091EB023097CF
:1019200009F451C0968DA685B785858591FF04C0C1
:101930009C91892329F447C09C91892309F043C0D5
:10194000A389B4899C918589809589238C93868904
:1019500097890197F1F7608D718DA685B7855585BB
:1019600038E020E0CB010197F1F7822F90E09595C8
:101970008795282F4C91452309F02068315091F725
:10198000868D81FD20958091A90290E001968F734C
:1019900099273091A802381749F0A091A902B0E028
:1019A000A655BD4F2C938093A90203C0868D8160FC
:1019B000868F828D938D0197F1F7A389B4899C91CD
:1019C0008589892B8C93FF91EF91BF91AF919F9166
:1019D0008F917F916F915F914F913F912F910F90D8
:1019E0000FBE0F901F90189529E931E0FC0131835B
:1019F00020830C943B0C1F93CF93DF93EC01162FA5
:101A00006E8D6695617081E06827812F0E94482B5A
:101A100061E0812F0E940C2B812F90E0FC01E756A2
:101A2000FC4FE491E88BFC01E355FC4FE491F0E0BE
:101A3000EE0FFF1FE553FC4F859194919A8B898B94
:101A4000DF91CF911F9108951F93CF93DF93EC0106
:101A5000162F60E0812F0E940C2B8E8D81FD04C01B
:101A600061E0812F0E94482B1C87812F90E0FC01B0
:101A7000E756FC4FE491ED87FC01E355FC4FE49100
:101A8000F0E0EE0FFF1FEF53FC4F859194919F877D
:101A90008E87DF91CF911F9108951F93CF93DF938E
:101AA000EC01162F1B821A8288EE93E0A0E0B0E0D2
:101AB0008C839D83AE83BF8389E991E0998388837A
:101AC0001F8A1E8A198E188E1B8E1A8E1D8E1C8ED2
:101AD0008E8D8E7F20FB81F98E8F642FCE010E9428
:101AE000FB0C612FCE01DF91CF911F910C94240D3F
:101AF000CF93DF93EC019A01AB011B8E1A8E198EE6
:101B0000188E1F8A1E8A60E079E08DE390E00E94C3
:101B1000262FF9012430310518F0C901039702C0BE
:101B200081E090E09D8F8C8F6C85663108F069C0F4
:101B3000C901969587958431910510F0439702C0AD
:101B400081E090E09F8B8E8B369718F0C901059746
:101B500002C081E090E0998F888FC901880F991F9A
:101B6000280F391F36952795369527952D30310545
:101B700018F02C50310902C021E030E03B8F2A8F51
:101B800090916800683050F021E06E3008F420E059
:101B900081E001C0880F2A95EAF701C084E0892B13
:101BA000809368009C85983038F09E3040F09631E4
:101BB00048F020E030E008C02DE630E005C02BE61C
:101BC00030E002C02CE630E03C8B2B8B983030F4B8
:101BD00081E001C0880F9A95EAF70EC0292F30E006
:101BE0009E3018F42850310902C02E50310981E08E
:101BF00001C0880F2A95EAF78D8B8C8D9D8D0197FA
:101C0000F1F7CE01DF91CF910C94510CCF93DF937C
:101C10001F92CDB7DEB76983DC01ED91FC910280A4
:101C2000F381E02D41E050E0BE016F5F7F4F0995E9
:101C30000F90DF91CF910895CF93DF93EC01898DC1
:101C40009A8D009739F481E090E09B838A8380E04D
:101C500090E00BC0FC01138212820E94731DE98D7B
:101C6000FA8D22813381232B71F7DF91CF91089573
:101C7000FC01818D928D009711F00C94181B089532
:101C8000CF93DF931F92CDB7DEB741E050E0BE01A6
:101C90006F5F7F4F0E943319019719F4898190E09B
:101CA00002C08FEF9FEF0F90DF91CF910895FC015D
:101CB000818D928D009711F00C94400E8FEF9FEF65
:101CC00008950F931F93CF93DF93FC01818D928D25
:101CD0000097B9F0EF010E94400E8C010F3F8FEF8B
:101CE000180791F0898D9A8DFC0142855385648592
:101CF000758541505109610971090E94811AC80115
:101D000005C080E090E002C08FEF9FEFDF91CF91A0
:101D10001F910F910895EF92FF920F931F93CF930E
:101D2000DF93EC017B018A011B821A8288EE93E02B
:101D3000A0E0B0E08C839D83AE83BF8389EA91E00D
:101D4000998388838DE190E00E94792F9A8F898F03
:101D5000009779F02DE1F701DC0101900D922A95B1
:101D6000E1F74CE050E0B801CE010C960E94D5316D
:101D7000188EDF91CF911F910F91FF90EF900895F2
:101D8000FC011382128288EE93E0A0E0B0E084832D
:101D90009583A683B78389EA91E091838083128E2D
:101DA000118E14860895DC015996ED91FC915A9795
:101DB000309729F0628573858485958508956FEF46
:101DC0007FEFCB010895DC015996ED91FC915A9774
:101DD000309729F06389748985899689089560E030
:101DE00070E0CB010895CF92DF92EF92FF92CF93F4
:101DF000DF93FC01218D328D232BD9F0EC010E9461
:101E0000E30E6B017C01CE010E94D30EA701960167
:101E1000261B370B480B590BDA01C901811530E835
:101E20009307A105B10538F08FEF9FE7A0E0B0E080
:101E300002C080E090E0DF91CF91FF90EF90DF90C3
:101E4000CF900895CF93DF93EC01898D9A8D009701
:101E500041F00E945F1B898D9A8D0E9411301A8E6D
:101E6000198EDF91CF910895DC015996ED91FC9187
:101E70005A97309721F081E09581911101C080E05F
:101E800008951F93CF93DF93CDB7DEB76D970FB64D
:101E9000F894DEBF0FBECDBFAB011C821B822BEBC3
:101EA00031E03A8329831E8221E0BC01CE010196F4
:101EB0000E94871C11E0811102C010E004C0CE0115
:101EC00001960E945F1B812F6D960FB6F894DEBFBE
:101ED0000FBECDBFDF91CF911F910895EF92FF927A
:101EE0000F931F93CF93DF93DA01EB0128813981A0
:101EF000FC01E20FF31F40814F3211F42F5F3F4F7F
:101F00008C01020F131F7D01E0E0F0E0E801599120
:101F10008E015F3259F0552349F031962F5F3F4FC4
:101F2000E70159937E01EC30F10581F7EA0FFB1FC1
:101F30001082FC01E20FF31F40814F3211F42F5F3A
:101F40003F4FFB0131832083FC01E20FF31F81E04F
:101F50009081911101C080E0DF91CF911F910F918D
:101F6000FF90EF9008954F925F926F927F928F92C1
:101F70009F92AF92BF92CF92DF92EF92FF920F9318
:101F80001F93CF93DF93CDB7DEB7C954D1090FB6F6
:101F9000F894DEBF0FBECDBF5C016B013A01490171
:101FA00019A218A28BEB91E09F8F8E8F1BA21C822F
:101FB0001B829A8389831E822A961FAE1EAE2A97A1
:101FC0008B017E018EE1E80EF11C44244394AE01A6
:101FD000455C5F4FBE01685B7F4FC5010E946E0F7D
:101FE000582E482F44259401BE01655C7F4FC801DF
:101FF000F3010995811108C00C151D0519F0C801E0
:102000000E945F1B80E027C05520B9F021E0AE019F
:10201000455C5F4FB801C7010E94871C582E0C1504
:102020001D0599F0C8010E945F1B552059F3902FA0
:10203000812F8701E92EF82ECACF0C151D0519F046
:10204000C8010E945F1B81E006C08823D9F28E017F
:102050000F5F1F4FECCFC75BDF4F0FB6F894DEBFAB
:102060000FBECDBFDF91CF911F910F91FF90EF90E9
:10207000DF90CF90BF90AF909F908F907F906F90A8
:102080005F904F9008950F931F93CF93DF93EC01D0
:10209000462F61E00E94FC15882391F08E01045FB9
:1020A0001F4F41E0BE01C8010E94B722882351F0B2
:1020B000B801CE018A960E94E21891E081110AC00F
:1020C00090E008C040E0BE01C8010E94B72288230A
:1020D000B9F3EECF892FDF91CF911F910F91089522
:1020E000FC01DB0112968D919C911397938382835F
:1020F0008BEB91E09183808314968C911497848369
:1021000015968C911597858316964D915D916D91DD
:102110007C91199746835783608771871A964D91F2
:102120005D916D917C911D97428753876487758778
:102130001E964D915D916D917C9151974687578781
:10214000608B718B52968C915297828B53964D91E6
:102150005D916D917C915697438B548B658B768BFB
:1021600057964D915D916D917C915A97478B508F09
:10217000618F728F5B968D919C915C97948F838F0A
:1021800008954F925F926F927F928F929F92AF923B
:10219000BF92CF92DF92EF92FF920F931F93CF9354
:1021A000DF93CDB7DEB7C754D1090FB6F894DEBFC1
:1021B0000FBECDBF5C014A013901665D7F4F6E01E4
:1021C0008EE1C80ED11CC6010E9470101C821B82B9
:1021D0008BEB91E09A8389831E8274018E010F5FDD
:1021E0001F4F5C2C4D2C6FE270E0C7010E94B5318F
:1021F000009709F443C0F70120812F3271F4FFEFFB
:10220000EF1AFF0A902F812F052D142D2C01C201EA
:10221000502E412E092F182FE6CF8E198D3008F041
:102220008CE0C82ED12CA601B701CE01CB960E941E
:10223000D531EBE3F0E0EC0FFD1FEC0DFD1D10823E
:10224000C8010E945F1B21E0AE01455C5F4F652D18
:10225000742DC8010E94871C811109C0F5011382E9
:1022600012828BEB91E091838083158211C0EC0C7C
:10227000FD1C852D942D0E945F1BC9CFE818F9081D
:10228000F301F182E082652D742DC5010E9470106A
:10229000C501C95BDF4F0FB6F894DEBF0FBECDBFDF
:1022A000DF91CF911F910F91FF90EF90DF90CF9032
:1022B000BF90AF909F908F907F906F905F904F9066
:1022C0000895AF92BF92CF92DF92FF920F931F9328
:1022D000CF93DF93CDB7DEB7C955D1090FB6F894C8
:1022E000DEBF0FBECDBF6C015B018A01F22E9E01E5
:1022F000285A3F4FCE01CB960E94C1106A968EADF0
:102300009FAD6A97080F191FF801808181110AC0DB
:10231000BE01655C7F4FCE0101960E94701045EBB7
:1023200051E041C019A218A28BEB91E09F8F8E8FD4
:102330001BA221968FAD2197811104C0C6010E9476
:10234000C00E37C08250823060F4B501665D7F4FA9
:102350002F2DA801CE014E960E94871C811110C01E
:10236000EDCF2F2DA801BE01655C7F4FCE014E96AB
:102370000E94871C882311F3CE01CB960E945F1B1D
:102380008F2D867041F049A95AA96BA97CA9CE016D
:102390004E960E94811ABE01625E7F4FCE01019669
:1023A0000E947010A801BE016F5F7F4FC6010E949E
:1023B0008B0EC601C75ADF4F0FB6F894DEBF0FBEB3
:1023C000CDBFDF91CF911F910F91FF90DF90CF9004
:1023D000BF90AF900895FB01BC01665D7F4F20E088
:1023E00030E041E45FE0CF010C94B30FECEEF2E09B
:1023F000158216821186138682E090E0A0E0B0E09C
:1024000084879587A687B78713A215A614A68BEB9A
:1024100091E093A782A717A60895DC0181E09FEEC3
:1024200011969C938E9316966C93169718965C93C0
:102430004E9317978FEF12968C93129713968C9357
:10244000139714968C93149715968C931597199649
:102450004034510520F4B901CD010C94AC3180E435
:10246000F90101900D928A95E1F70895FC01268308
:102470003783408751878FEF9FEFDC0182879387F7
:10248000A487B58717A216A275A364A373A362A33A
:102490000895CF92DF92EF92FF92CF93DF93EC01FA
:1024A0006A017B0168EE73E080E090E00E946C2A94
:1024B0008EA19FA1009729F026E0B701A6010E94F6
:1024C00094248CA19DA1009751F0B701A601DF9142
:1024D000CF91FF90EF90DF90CF900C94780DDF912B
:1024E000CF91FF90EF90DF90CF900895BF92CF9261
:1024F000DF92EF92FF920F931F93CF93DF93EC0144
:102500008B018AA19BA1DB0111966C91DC01ED91FD
:10251000FC910190F081E02D09958AA19BA1DC013D
:10252000ED91FC910190F081E02DD8016C9109951D
:102530008AA19BA1DC01ED91FC910190F081E02D3D
:10254000D80112966C9109958AA19BA1DC01ED91AD
:10255000FC910190F081E02DD80113966C910995C2
:102560008AA19BA1DC01ED91FC910190F081E02D0D
:10257000D80114966C9109958AA19BA1DC01ED917B
:10258000FC910190F081E02DD80115966C91099590
:102590008AA19BA1DC01ED91FC910190F081E02DDD
:1025A000D80116966C910995F801C780D084F2E0A5
:1025B000CF0ED11C8AA19BA1ED2CFF24DC01ED9153
:1025C000FC910190F081E02D6E2D09958AA19BA1CF
:1025D000DC01ED91FC910190F081E02D6C2D0995CD
:1025E000EC0CF11CF8018681E80EF11CB12CCB2C0F
:1025F000D12CD80117962D913C9118978AA19BA1B7
:10260000C216D30690F4C00ED11EDC01ED91FC91F0
:102610000190F081E02DD60119966C910995F60193
:102620008185E80EF11CB394E2CFDC01ED91FC91C1
:102630000190F081E02D6F2D09958AA19BA1DC010D
:10264000ED91FC910190F081E02D6E2DDF91CF9105
:102650001F910F91FF90EF90DF90CF90BF90099462
:10266000AF92BF92CF92DF92EF92FF920F931F93A0
:10267000CF93DF936C01EB015A01E12CF12C00E0C8
:1026800010E0D60192968D919C919397DC01ED918B
:10269000FC910480F581E02D0995892B71F461E0AE
:1026A00070E080E090E00E946C2ABFEFEB1AFB0A1A
:1026B000EA14FB0430F38FEF45C0F60182A193A129
:1026C000DC01ED91FC910680F781E02D0995093040
:1026D000110538F5F801EC5CFF4F0C94452F8F3E47
:1026E00081F61882898328C028813981F901E82B75
:1026F000CF019983888381309F4EF1F020C0FE0185
:10270000E00FF11F808318C08E8316C01F82888758
:1027100013C02F813885A901482BCA0198878F8360
:102720000BC0FE01E00FF11F80832F813885C801A7
:1027300008978217930729F00F5F1F4FA2CF8EEFE4
:1027400001C080E0DF91CF911F910F91FF90EF903A
:10275000DF90CF90BF90AF9008950F931F93CF93CA
:10276000DF93CDB7DEB7CE54D1090FB6F894DEBFF4
:102770000FBECDBF8C01FE01E65BFF4F85E0DF01A0
:102780001D928A95E9F783E18083D80116968C9192
:10279000169717969C91179718962C91189719963B
:1027A0003C9131832283938384839F0145E050E0F1
:1027B00061E0CE0101960E940D12BE016F5F7F4F56
:1027C000C8010E94761248EE53E0BE016F5F7F4F52
:1027D000C8010E943013811109C08F81873031F404
:1027E00081E09A85911103C080E001C081E0C25B65
:1027F000DF4F0FB6F894DEBF0FBECDBFDF91CF9194
:102800001F910F9108950E94AD1391E0811190E006
:10281000892F08950F931F93CF93DF93CDB7DEB722
:10282000CA54D1090FB6F894DEBF0FBECDBF8C01DC
:1028300081E02B968FAF2B979E01265B3F4F41E0A7
:1028400050E061E0CE0101960E940D12BE016F5F63
:102850007F4FC8010E94761248EE53E0BE016F5FC1
:102860007F4FC8010E943013811105C08F818730CE
:1028700011F48A8501C081E0C65BDF4F0FB6F89482
:10288000DEBF0FBECDBFDF91CF911F910F91089595
:102890000F931F93CF93DF93CDB7DEB7CB54D109FE
:1028A0000FB6F894DEBF0FBECDBF8C0182E02B9631
:1028B0008FAF2B972C966FAF2C979E01265B3F4FC7
:1028C00042E050E061E0CE0101960E940D12BE018F
:1028D0006F5F7F4FC8010E94761248EE53E0BE0141
:1028E0006F5F7F4FC8010E943013811105C08F8137
:1028F000873011F48A8501C081E0C55BDF4F0FB6D8
:10290000F894DEBF0FBECDBFDF91CF911F910F9125
:1029100008950F931F93CF93DF93CDB7DEB7CA54BB
:10292000D1090FB6F894DEBF0FBECDBF8C0185E094
:102930002B968FAF2B979E01265B3F4F41E050E0D7
:1029400061E0CE0101960E940D12BE016F5F7F4FC4
:10295000C8010E94761248EE53E0BE016F5F7F4FC0
:10296000C8010E943013811105C08F81873011F496
:102970008A8501C081E0C65BDF4F0FB6F894DEBFE9
:102980000FBECDBFDF91CF911F910F9108950F938F
:102990001F93CF93DF93CDB7DEB7CD54D1090FB6D8
:1029A000F894DEBF0FBECDBF8C0186E02B968FAFB3
:1029B0002B9781E02C968FAF2C972D967FAF2D977C
:1029C0002E966FAF2E979E01265B3F4F44E050E05E
:1029D00061E0CE0101960E940D12BE016F5F7F4F34
:1029E000C8010E94761248EE53E0BE016F5F7F4F30
:1029F000C8010E943013811105C08F81873011F406
:102A00008A8501C081E0C35BDF4F0FB6F894DEBF5B
:102A10000FBECDBFDF91CF911F910F9108959FB74A
:102A2000F89420913C0680913A06213019F48DBB30
:102A30009FBF08958FBF08958EBD00000DB407FE9F
:102A4000FDCF8EB508958FEF0C941C1561E0FC014D
:102A500084810E94482B80913503882339F010929D
:102A6000350380913C0681110C940F150895CF9386
:102A7000DF93EC0180913503811109C081E08093DF
:102A8000350380913603909137030E94580860E027
:102A90008C81DF91CF910C94482BCF93DF93EC0185
:102AA0008E81882389F08F8198859C012F5F3F4F0D
:102AB00038872F838230924018F40E942315F3CF79
:102AC000CE010E9426151E82DF91CF9108956730B6
:102AD00028F026E1FC01258380E00895623081F032
:102AE00030F4662359F06130B1F480E515C06430EC
:102AF00059F040F0653079F482E50EC080E505C0FC
:102B000081E503C081E508C082E58093360381E05A
:102B100080933703089583E580933603109237033B
:102B200081E008950F931F93CF93DF93EB010E94F1
:102B30003B2A8B010E9423158F3F49F00E943B2ABC
:102B4000601B710B6C177D07A8F380E001C081E06A
:102B5000DF91CF911F910F9108958F929F92AF9225
:102B6000BF92FF920F931F93CF93DF93EC01F62E4A
:102B700049015A010E944D15CE010E9437156CE2A1
:102B800071E0CE010E9492158F2D80640E941C1569
:102B900008E110E0D501C401002E04C0B695A79548
:102BA000979587950A94D2F70E941C150850110931
:102BB000083F8FEF180771F7FF2029F088E0F8121F
:102BC00004C087E803C085E901C08FEF0E941C158F
:102BD00010E00E9423158A8787FF04C01F3F11F071
:102BE0001F5FF7CFDF91CF911F910F91FF90BF90A3
:102BF000AF909F908F9008958F929F92AF92BF92C7
:102C0000EF92FF920F931F93CF93DF93EC01E62E89
:102C10001B8619861E821D824C830E943B2A4B0113
:102C20005C0161E08C810E940C2B61E08C810E9430
:102C3000482B0E94C52C82E58093360310923703FF
:102C400080913603909137030E9458081AE08FEF65
:102C50000E941C151150D9F780913C0681110E94E9
:102C60000F158401CE010E94371520E030E0A90144
:102C700060E0CE010E94AD15F82E8A8781E0F8163B
:102C800049F00E943B2A601B710B613D774068F35D
:102C900081E04CC02AEA31E040E050E068E0CE013B
:102CA0000E94AD1582FF02C0FB860EC094E0F92E93
:102CB0000E9423158A87FA94F110FACF8A3A11F00C
:102CC00082E034C082E08B878B85823021F0812CBA
:102CD000912C540105C0812C912CA12C80E4B82E9C
:102CE00020E030E0A90167E3CE010E94AD15A50107
:102CF000940169E2CE010E94AD158A87882349F0CC
:102D00000E943B2A601B710B613D774048F388E0CD
:102D10000DC08B85823039F520E030E0A9016AE3EF
:102D2000CE010E94AD15882389F086E08D83CE0107
:102D30000E94261580E0DF91CF911F910F91FF90A7
:102D4000EF90BF90AF909F908F9008950E942315B1
:102D5000807C803C11F483E08B870E9423150E94C5
:102D600023150E942315CE010E9426156E2DCE013B
:102D7000DF91CF911F910F91FF90EF90BF90AF9097
:102D80009F908F900C9467150F931F93CF93DF93B1
:102D9000EC010E943B2A8B010E9423158A878F3FFA
:102DA00049F40E943B2A601B710B6D327140A0F305
:102DB0008FE003C08E3F39F08DE08D83CE010E94FD
:102DC000261580E001C081E0DF91CF911F910F9126
:102DD0000895CF92DF92EF92FF920F931F93CF93BC
:102DE000DF93EC016901C801820F931F813092408B
:102DF00008F05CC08E81882371F088819981AA8156
:102E0000BB8184179507A607B70729F48F8198859A
:102E1000C816D90610F5488359836A837B838B854E
:102E2000833039F089E0440F551F661F771F8A955C
:102E3000D1F79A01AB0161E1CE010E94AD15882363
:102E400019F083E08D8332C0CE010E94C41688231E
:102E500069F118861F8281E08E838F8198858C1599
:102E60009D0540F40E9423158F81988501969887CF
:102E70008F83F3CF6701E00EF11ECE14DF0431F033
:102E80000E942315F60181936F01F7CF8F819885FA
:102E9000080F191F18870F838985882319F00115DA
:102EA000124048F0CE010E944D1505C0CE010E948F
:102EB000261580E001C081E0DF91CF911F910F9135
:102EC000FF90EF90DF90CF900895EF92FF920F93D5
:102ED0001F930115110519F00E94E91601C081E048
:102EE0001F910F91FF90EF900895EF92FF920F9333
:102EF0001F93790100E012E020E030E00E94E91623
:102F00001F910F91FF90EF900895EF92FF920F9312
:102F10001F93CF93DF938C01862F7A010E941C159B
:102F2000E7018EEFF81A89910E941C15CE15DF0576
:102F3000D1F78FEF0E941C158FEF0E941C150E9485
:102F40002315F80182878F71853039F081E18583FF
:102F5000C8010E94261580E001C081E0DF91CF9179
:102F60001F910F91FF90EF9008950F931F93CF93B0
:102F7000DF93EC018901411551056105710511F4DB
:102F800082E132C08B85833039F089E0440F551FD0
:102F9000661F771F8A95D1F79A01AB0168E1CE01D0
:102FA0000E94AD15882311F084E01EC0A8016EEFC9
:102FB000CE010E9485178823C1F068E572E0CE013A
:102FC0000E949215811102C085E10EC020E030E020
:102FD000A9016DE0CE010E94AD15811104C00E94CF
:102FE0002315882339F084E18D83CE010E942615B4
:102FF00080E004C0CE010E94261581E0DF91CF91D0
:103000001F910F910895E6E3F3E080E5808311823C
:103010000895CF93DF93EC019C012A5F3F4F41E07D
:1030200050E060E070E08B8D9C8D0E944C218823E5
:10303000A1F08F89988DA98DBA8D892B8A2B8B2B26
:1030400059F48E819F81A885B9858F8B988FA98F20
:10305000BA8F8C8180688C8381E0DF91CF91089555
:10306000CF92DF92EF92FF921F93CF93DF93EC0109
:103070000E940918811102C080E04AC0EB8DFC8DCE
:10308000CE80DF80E884F98482E0C81AD108E108A4
:10309000F108058404C0CC0CDD1CEE1CFF1C0A9456
:1030A000D2F786859785A089B189C80ED91EEA1EF8
:1030B000FB1E148181E0C81AD108E108F108112330
:1030C00061F0C701B601610F711D811D911D0E9444
:1030D0009B1F882389F21150F2CFEB8DFC8D80E08D
:1030E00092E0A0E0B0E0058404C0880F991FAA1FF9
:1030F000BB1F0A94D2F74B895C896D897E89840F46
:10310000951FA61FB71F8B8B9C8BAD8BBE8B81E051
:10311000DF91CF911F91FF90EF90DF90CF900895B6
:10312000CF93DF93EC01462F6E857F85888999893F
:103130000E94601F882341F08A8920E2829FC0019B
:1031400011248F5B9C4F02C080E090E0DF91CF9113
:103150000895FB019B01255F3F4F40E24193E21739
:10316000F307E1F7DC0190E027E08D91882319F166
:103170008E3229F42A3021F198E02AE0F6CFE5E7F3
:10318000F3E03491332321F031968313FACF18C042
:103190002917B0F03FED380F3E3590F431E0390F8C
:1031A000FB01E90FF11D9FE9980F9A3108F4805255
:1031B0008083932FDACF81E0FB019081903209F474
:1031C00080E008950F931F93CF93DF93FC01258137
:1031D000222311F080E042C08B01EC01FB018789C2
:1031E0008031B1F482E08D831F8A188E198E1A8E79
:1031F000808D918DA0E0B0E025E0880F991FAA1F77
:10320000BB1F2A95D1F78B8B9C8BAD8BBE8B15C0CA
:10321000803201F783E08D83FB01428D538D648DF5
:10322000758D4F8B588F698F7A8F9E012D5E3F4F22
:10323000C8010E944220882369F21C8F0B8F81E015
:103240008C831E821F82188619861A861B861C860E
:103250001D861E861F86188A198A1A8ADF91CF91C9
:103260001F910F9108952F923F924F925F926F920C
:103270007F928F929F92AF92BF92CF92DF92EF9206
:10328000FF920F931F93CF93DF93EC015B014A01F1
:103290008D81811103C08FEF9FEFD7C08C8180FF9C
:1032A000FACF4B885C886D887E884A855B856C8503
:1032B0007D85C401A0E0B0E093018201041B150BE1
:1032C000260B370B081719072A073B0718F442018A
:1032D000841A950A24011E0126E0220E311C411495
:1032E000510409F47EC04A855B856C857D856A0141
:1032F00081E0D822ED818B8D9C8D8A019B01F9E0C4
:103300003695279517950795FA95D1F7E23061F430
:10331000FC01828D938DA48DB58DBC01CD01600F14
:10332000711F821F931F3FC0FC0174807A9470222A
:10333000C114D104C9F4711017C0452B462B472B7B
:1033400049F48F89988DA98DBA8D8E839F83A88724
:10335000B9870AC04E815F816885798591010E9495
:10336000BF1F882309F497CFEB8DFC8D8E819F8141
:10337000A885B9850297A109B109058404C0880F01
:10338000991FAA1FBB1F0A94D2F7468557856089EB
:103390007189840F951FA61FB71FBC01CD01670D52
:1033A000711D811D911D20E032E02C193D09320173
:1033B0002415350508F439012C8126FD04C061145B
:1033C000F2E07F0679F500910C0110910D0120913A
:1033D0000E0130910F01601771078207930719F4EE
:1033E00021C0C40132C0750183019601AB01BC014B
:1033F00080913F03909140030E946517882309F450
:103400004ACFA60CB71C8A859B85AC85BD85860DE9
:10341000971DA11DB11D8A879B87AC87BD87461864
:1034200057085DCF40E00E94601F882309F433CF26
:10343000F601EF5BFC4FD501CF01860D971D8E176E
:103440009F07F9F221912D93FACFDF91CF911F9130
:103450000F91FF90EF90DF90CF90BF90AF909F9033
:103460008F907F906F905F904F903F902F90089536
:10347000FF920F931F93CF93DF931F92CDB7DEB7C9
:10348000FC012581223018F480E090E033C08C01EB
:10349000FC01428553856485758585E07695679541
:1034A000579547958A95D1F7F42FFF70FF2E41E08D
:1034B00050E0BE016F5F7F4FC8010E943319019732
:1034C00019F4898190E002C08FEF9FEF0196E1F23D
:1034D000F80182859385A485B5854F96A11DB11D00
:1034E00082879387A487B587F0E2FF9EC0011124ED
:1034F0008F5B9C4F0F90DF91CF911F910F91FF90A9
:1035000008958F929F92AF92BF92CF92DF92EF92E7
:10351000FF920F931F93CF93DF93EC018D81811165
:1035200002C080E078C00B891C892D893E89041770
:10353000150726073707A8F36A017B01823029F4B3
:10354000CA86DB86EC86FD860DC0C114D104E10479
:10355000F10451F41E821F82188619861A861B8672
:103560001C861D8681E057C08A849B84AC84BD8400
:10357000EB8DFC8D258530E0275F3F4FB501A40121
:103580004150510961097109022E04C07695679571
:10359000579547950A94D2F7D701C6010197A1091B
:1035A000B10904C0B695A795979587952A95D2F746
:1035B00084179507A607B70720F089288A288B2843
:1035C00071F44F89588D698D7A8D4E835F8368873A
:1035D00079874C015D018E010A5F1F4F16C0841B65
:1035E000950BA60BB70BF5CF4E815F81688579856A
:1035F00098018B8D9C8D0E94BF1F91E0891A9108C4
:10360000A108B108882309F48CCF81149104A10486
:10361000B10451F795CFDF91CF911F910F91FF909A
:10362000EF90DF90CF90BF90AF909F908F900895D4
:103630000F931F93CF93DF93EC018D818823C9F102
:103640008C8187FF30C061E0CE010E9490188C0110
:10365000892B79F18D81823048F48B899C89AD89E1
:10366000BE89F801848F958FA68FB78F8F89988D2B
:10367000A98DBA8DF801938F828FB58BA48BE091C1
:103680003803F0913903309759F0B8016A5E7F4FE3
:10369000C80148960995F801808D918D938B828B96
:1036A0008C818F778C83DF91CF911F910F910C9438
:1036B000251F80E0DF91CF911F910F910895CF9347
:1036C000DF93EC010E94181B882311F01D8281E01A
:1036D000DF91CF9108954F925F926F927F928F9278
:1036E0009F92AF92BF92EF92FF920F931F93CF934F
:1036F000DF9300D000D0CDB7DEB7FC0185818130EB
:10370000E9F4848181FF1AC083899489A589B689E7
:1037100084179507A607B70788F0892B8A2B8B2B70
:1037200009F479C04A015B017F01428453846484B7
:103730007584CF010E94811A811102C080E06CC0A3
:10374000F701838D948D81149104A104B10471F467
:103750004789508D618D728D0E946122882371F39B
:10376000F701178A108E118E128E3AC0F70146812A
:103770005781608571859E012F5F3F4F0E94BF1F5B
:103780008823E1F249815A816B817C81F701838D25
:10379000948DFC012789203129F008EF1FEF2FEFCE
:1037A0003FE004C008EF1FEF20E030E04017510772
:1037B00062077307A8F40E946122882309F4BECF30
:1037C000F70146815781608571850FEF1FEF2FEF5D
:1037D0003FE0838D948D0E94AB20882309F4AECF07
:1037E000F701838A948AA58AB68A84818068848353
:1037F000C7010E94181B882309F4A0CFB501A401BA
:10380000481459046A047B0410F4B301A201C701EF
:103810000E94811A01C081E00F900F900F900F90CD
:10382000DF91CF911F910F91FF90EF90BF90AF90DC
:103830009F908F907F906F905F904F9008951F930F
:10384000CF93DF93EC0180E2689FF0011124EF5BDE
:10385000FC4F9385917129F0842F827411F080E0E0
:1038600052C0142F6A8B80910C0190910D01A09190
:103870000E01B0910F018E879F87A88BB98B448969
:10388000558960E070E0BA0155274427828D938DF9
:10389000A0E0B0E0482B592B6A2B7B2B4F8B588F25
:1038A000698F7A8F8385887151F4848D958DA68D6B
:1038B000B78D8B8B9C8BAD8BBE8B81E00CC0803128
:1038C00071F69E012D5E3F4F8B8D9C8D0E94422094
:1038D000882329F284E08D83812F8F708C831E8250
:1038E0001F82188619861A861B861C861D8616FF5F
:1038F00009C040E050E0BA01CE01DF91CF911F91A5
:103900000C946B1B81E0DF91CF911F910895BF92C2
:10391000CF92DF92EF92FF920F931F93CF93DF939B
:10392000CDB7DEB72B970FB6F894DEBF0FBECDBF75
:10393000FC0135813111BFC0C22E8B017C01BE015B
:103940006F5F7F4FCA010E94A918882309F4B3C092
:10395000F801838D948DF701948F838FF80116827F
:103960001782108611861286138614861586D12C2E
:10397000F80182859385A485B58543895489658935
:10398000768984179507A607B70708F03EC025E09B
:10399000B695A795979587952A95D1F7F82FFF703B
:1039A000BF2EC8010E94381A009709F484C0FC0198
:1039B00020812223A1F0253E09F47FC04BE050E096
:1039C000BC01CE0101960E949F31892B89F68C2D76
:1039D0008073803309F46FC04C2D6B2D68C0D110FB
:1039E00012C0F701B28A40910C0150910D01609113
:1039F0000E0170910F0146875787608B718BFC0118
:103A0000808181115DC0DD24D3948C2D827182313F
:103A100009F051C0DD2041F061E0C7010E9490181B
:103A20008C01892B79F447C0F8018581823009F433
:103A300042C0C8010E9430188823E9F1F701128AB8
:103A400001E413E080E2F80111928A95E9F78BE036
:103A5000FE013196D80101900D928A95E1F7E0912F
:103A60003803F0913903309739F0B801625F7F4F26
:103A7000C8014096099509C081E298E2F801918B4E
:103A8000808B80E098E097878687F801808991890C
:103A9000938B828B918F808F86859785978B868B72
:103AA0000E94251F882339F04C2DF7016289C70138
:103AB0000E941F1C08C080E006C0DD2009F491CFE1
:103AC000DD24D39455CF2B960FB6F894DEBF0FBEEE
:103AD000CDBFDF91CF911F910F91FF90EF90DF90BD
:103AE000CF90BF9008952F923F924F925F926F9226
:103AF0007F928F929F92AF92BF92CF92DF92EF927E
:103B0000FF920F931F93CF93DF9300D000D0CDB7D8
:103B1000DEB78C016B011A01DC0115968C911597AB
:103B20008130C9F414968C9181FF15C082FF1DC0AD
:103B3000F801438954896589768982859385A485AE
:103B4000B58584179507A607B70779F0C8010E94C5
:103B5000811A81110AC081E090E0D80113969C93EC
:103B60008E93129780E090E048C1410183C05B963C
:103B70008D919C915C97FC0174802FEF270D2A0199
:103B80003B0139E076946794579447943A95D1F77E
:103B9000722E74207A01F1E0FF22772009F476C0BA
:103BA00080E092E08E199F0954018815990508F468
:103BB0005C01D8015B962D913C915C9716968D9196
:103BC0009D910D90BC91A02D0297A109B109F90119
:103BD000058404C0880F991FAA1FBB1F0A94D2F73F
:103BE0004685578560897189840F951FA61FB71F69
:103BF0009C01AD01270D311D411D511D29013A01C7
:103C0000A11432E0B30609F088C080910C019091B4
:103C10000D01A0910E01B0910F01481659066A06D8
:103C20007B0659F48FEF9FEFDC0180930C0190939A
:103C30000D01A0930E01B0930F019601B301A201F3
:103C400080913F03909140030E94B517882309F4A7
:103C500082CF9EEFD91A8A189B08F8018285938536
:103C6000A485B5858A0D9B1DA11DB11D82879387F3
:103C7000A487B587D8011A964D915D916D917C917D
:103C80001D978114910409F072CF87C0E114F104EB
:103C900009F086CF16964D915D916D917C911997A3
:103CA000411551056105710559F457968D919D9106
:103CB0000D90BC91A02D0097A105B10541F521C043
:103CC0009E012F5F3F4F0E94BF1F882309F44BCFF7
:103CD00089819A81AB81BC81F801238D348DF901F2
:103CE0002789203129F048EF5FEF6FEF7FE004C0B4
:103CF00048EF5FEF60E070E084179507A607B7070D
:103D000030F0C8010E94091881114ACF24CFF80170
:103D100086839783A087B18743CFE114F10429F507
:103D2000D8011A964D915D916D917C911D97539696
:103D30008D919D910D90BC91A02D481759076A0750
:103D40007B0798F00E94251F882309F404CF409236
:103D50000C0150920D0160920E0170920F01809142
:103D60003E03816080933E0308C041E0C301B2017D
:103D70000E94601F882309F4EECED601F701EF5BA5
:103D8000FC4F9F012A0D3B1D2E173F0719F08D9107
:103D90008193FACFCA0CDB1C5ECFD8015396CD902D
:103DA000DD90ED90FC90569714968C91C416D50634
:103DB000E606F70640F4F801438B548B658B768B4F
:103DC000806884830DC02091380330913903232B00
:103DD00039F02114310421F08068D80114968C93B5
:103DE000F801848183FD02C0C10107C0C8010E949F
:103DF000181B882309F4AFCEF7CF0F900F900F90C8
:103E00000F90DF91CF911F910F91FF90EF90DF9076
:103E1000CF90BF90AF909F908F907F906F905F906A
:103E20004F903F902F900895CF93DF931F92CDB77F
:103E3000DEB7698341E050E0BE016F5F7F4F0E94B3
:103E4000731D0F90DF91CF91089580913E038823D9
:103E5000A9F140910C0150910D0160910E017091FA
:103E60000F0121E433E080913F03909140030E94D1
:103E7000B517811102C080E0089540913A03509136
:103E80003B0360913C0370913D0341155105610571
:103E9000710591F021E433E080913F03909140035C
:103EA0000E94B517882339F310923A0310923B030E
:103EB00010923C0310923D0310923E0381E008955E
:103EC000CF92DF92EF92FF92CF936B017C01C42FD0
:103ED00080910C0190910D01A0910E01B0910F0104
:103EE0008C159D05AE05BF05D1F00E94251F8111DF
:103EF00002C080E01AC021E433E0B701A60180913E
:103F00003F03909140030E947517882391F3C0925C
:103F10000C01D0920D01E0920E01F0920F01809100
:103F20003E03C82BC0933E0381E0CF91FF90EF90FA
:103F3000DF90CF900895CF92DF92EF92FF926B01C6
:103F40007C010E94251F8823A9F0E1E4F3E011928F
:103F500085E0E134F807D9F7C0920C01D0920D0149
:103F6000E0920E01F0920F0180913E0381608093F8
:103F70003E0381E0FF90EF90DF90CF9008958F9205
:103F80009F92AF92BF92CF92DF92EF92FF920F93E8
:103F90001F93CF93DF93FC0181859285A385B48520
:103FA0000196A11DB11D84179507A607B70710F448
:103FB00080E05BC083889488A588B6888789803133
:103FC00029F4BB27A72F962F852F09C0DB01CA0133
:103FD000C7E0B695A79597958795CA95D1F7E9015A
:103FE0006A017B018F01BC01CD01680D791D8A1D1D
:103FF0009B1D80900C0190900D01A0900E01B0903F
:104000000F01681579058A059B0591F4F8018789E8
:104010008031A1F4DD24EE24FF24C601880F991F0E
:10402000FC01EF5BFC4F80819181A0E0B0E018C003
:1040300040E00E94601F8111E9CFBACFE894C7F831
:10404000DD24EE24FF24C601880F991F880F991FD5
:10405000FC01EF5BFC4F80819181A281B381BF7035
:1040600088839983AA83BB8381E0DF91CF911F91DD
:104070000F91FF90EF90DF90CF90BF90AF909F9007
:104080008F9008954F925F926F927F92AF92BF92FE
:10409000CF92DF92EF92FF920F931F93CF93DF9314
:1040A00000D000D0CDB7DEB78C0149835A836B8333
:1040B0007C835901C12CD12C7601412C82E0582EF1
:1040C000612C712C49815A816B817C819E012F5F0B
:1040D0003F4FC8010E94BF1F882351F1D301C20185
:1040E000F801058404C0880F991FAA1FBB1F0A94FA
:1040F000D2F7C80ED91EEA1EFB1E49815A816B8178
:104100007C818789803129F088EF9FEFAFEFBFE096
:1041100004C088EF9FEFA0E0B0E0481759076A0796
:104120007B0780F2F501C082D182E282F38281E0D6
:104130000F900F900F900F90DF91CF911F910F91E3
:10414000FF90EF90DF90CF90BF90AF907F906F90F7
:104150005F904F9008954F925F926F927F928F92EF
:104160009F92AF92BF92CF92DF92EF92FF920F9306
:104170001F93CF93DF93EC01423051056105710528
:1041800010F480E078C089859A85AB85BC8501965E
:10419000A11DB11D84179507A607B70790F3CB881B
:1041A000DC88ED88FE888F89803129F4BB27A72F12
:1041B000962F852F09C0DB01CA01E7E0B695A795C8
:1041C00097958795EA95D1F7480159012A013B0156
:1041D000C80ED91EEA1EFB1E80910C0190910D01A4
:1041E000A0910E01B0910F01C816D906EA06FB0690
:1041F00081F48F898031A9F4B301A2015527662784
:104200007727440F551FFA01EF5BFC4F91828082A4
:1042100019C040E0C701B6010E94601F8111E9CFBB
:10422000B0CFB301A2014F77552766277727440FF8
:10423000551F440F551FFA01EF5BFC4F808291829E
:10424000A282B38280913E03816080933E038A897B
:10425000823080F08D819E81AF81B885C80ED91ED5
:10426000EA1EFB1EC0923A03D0923B03E0923C034D
:10427000F0923D0381E0DF91CF911F910F91FF906C
:10428000EF90DF90CF90BF90AF909F908F907F90F6
:104290006F905F904F9008952F923F924F925F9250
:1042A0006F927F929F92AF92BF92CF92DF92EF92E6
:1042B000FF920F931F93CF93DF93CDB7DEB7609735
:1042C0000FB6F894DEBF0FBECDBF5C0149875A8799
:1042D0006B877C871901D901CD90DD90ED90FC9022
:1042E000C114D104E104F10431F0BFEFCB1ADB0AB1
:1042F000EB0AFB0A10C0FC01C080D180E280F38091
:104300009924939409851A852B853C8501301105E4
:104310002105310509F0912CF50181859285A38550
:10432000B4858C019D010F5F1F4F2F4F3F4F0D87AD
:104330001E872F87388B260137011D821E821F8220
:104340001886F50181859285A385B4850D811E812E
:104350002F813885081719072A073B0708F056C030
:104360002D853E854F855889241535054605570509
:1043700050F482E0482E512C612C712C92E0C92E11
:10438000D12CE12CF12C9E012F5F3F4FB301A201F4
:10439000C5010E94BF1F8823C9F149815A816B81E1
:1043A0007C81D301C2010196A11DB11D452B462B75
:1043B000472B19F06C017D010FC0AC01BD014C19F8
:1043C0005D096E097F0909851A852B853C850417CF
:1043D00015072607370779F02D813E814F815885D3
:1043E0002F5F3F4F4F4F5F4F2D833E834F83588743
:1043F0002C013D01A6CF0FEF1FEF2FEF3FE0B301E0
:10440000A201C5010E94AB20811118C080E041C00B
:10441000D301C2010197A109B1098D839E83AF83A6
:10442000B88793018201AC01BD01C5010E94AB2098
:10443000882361F34D805E806F807884C414D50436
:10444000E604F70428F3D1014D915D916D917C91C3
:10445000411551056105710599F4F101C082D182C0
:10446000E282F3829920A1F0FFEFCF1ADF0AEF0A70
:10447000FF0AD501CD92DD92ED92FC92139708C010
:1044800097018601C5010E94AB208111E6CFBECF06
:1044900081E060960FB6F894DEBF0FBECDBFDF910E
:1044A000CF911F910F91FF90EF90DF90CF90BF9031
:1044B000AF909F907F906F905F904F903F902F9024
:1044C0000895AF92BF92CF92DF92EF92FF920F9337
:1044D0001F93CF93DF9300D000D0CDB7DEB75C0140
:1044E0006A017B0182E090E0A0E0B0E0F50180830A
:1044F0009183A283B3839E012F5F3F4FB701A60133
:10450000C5010E94BF1F882311F100E010E098014F
:10451000B701A601C5010E94AB208823C1F0C98064
:10452000DA80EB80FC80F5018789803129F088EF03
:104530009FEFAFEFBFE004C088EF9FEFA0E0B0E0D7
:10454000C816D906EA06FB06B0F281E001C080E099
:104550000F900F900F900F90DF91CF911F910F91BF
:10456000FF90EF90DF90CF90BF90AF9008958F9223
:104570009F92AF92BF92CF92DF92EF92FF920F93F2
:104580001F93CF93DF93EC01142F7093400360933C
:104590003F03442369F1453010F080E0F2C040E071
:1045A00060E070E0CB010E94601F8823B1F320E13E
:1045B000129FA00111244F5C5C4FFA01E254FE4FA0
:1045C00080818F7751F73C9680819181A281B38160
:1045D00084369105A105B10500F33497C080D180E0
:1045E000E280F380C114D104E104F10421F4D5CFB9
:1045F000C12CD12C760140E0C701B6010E94601F9A
:10460000882359F280914C0390914D03811592407B
:1046100021F690915103992309F4BFCF20914F03C4
:1046200030915003232B09F4B8CF80914E03882397
:1046300009F4B3CF9A8B8C831D8690E041E050E063
:104640002D85E22FBA01022E02C0660F771F0A9451
:10465000E2F78617970731F031E0320F3D872830B7
:1046600078F39BCF209157033091580321153105E2
:1046700019F040E050E008C02091650330916603D6
:1046800040916703509168032D833E834F83588781
:1046900080914F039091500346015701880E991E57
:1046A000A11CB11C8B8A9C8AAD8ABE8A00915203E0
:1046B00010915303198F088FA0915103B0E00E940D
:1046C0004B2F860E971EA81EB91E8A8E9B8EAC8E0F
:1046D000BD8E85E0000F111F8A95E1F701501E4F36
:1046E000012F11270695800E911EA11CB11C8E86EC
:1046F0009F86A88AB98A20915403309155032115C9
:10470000310521F0A90160E070E008C0409161032B
:10471000509162036091630370916403D701C601F5
:1047200088199909AA09BB09840F951FA61FB71FED
:1047300004C0B695A79597958795EA95D2F789878E
:104740009A87AB87BC87853F2FE09207A105B1050B
:1047500010F48CE014C0853F9F4FA105B10510F403
:1047600080E10DC080916D0390916E03A0916F0365
:10477000B09170038A8F9B8FAC8FBD8F80E28F8B3F
:1047800081E0DF91CF911F910F91FF90EF90DF902B
:10479000CF90BF90AF909F908F900895FC01918D26
:1047A000228D892F90E0805C9F4F821B91098F732F
:1047B00099270895FC01918D828D981731F0828D93
:1047C000E80FF11D858D90E008958FEF9FEF08951C
:1047D000FC01918D828D981761F0828DDF01A80F09
:1047E000B11D5D968C91928D9F5F9F73928F90E02B
:1047F00008958FEF9FEF089581E595E2892B49F0A9
:1048000080E090E0892B29F00E94512581110C94C1
:1048100000000895FC01848DDF01A80FB11DA35A8B
:10482000BF4F2C91848D90E001968F739927848FD0
:10483000A689B7892C93A089B1898C9180648C93C7
:10484000938D848D981306C00288F389E02D8081B2
:104850008F7D80830895EF92FF920F931F93CF93E4
:10486000DF93EC0181E0888F9B8D8C8D981305C0C0
:10487000E889F989808185FD24C0F62E0B8D10E032
:104880000F5F1F4F0F731127E02E8C8DE8120CC0A5
:104890000FB607FCFACFE889F989808185FFF5CF4B
:1048A000CE010E940A24F1CF8B8DFE01E80FF11D8D
:1048B000E35AFF4FF0820B8FEA89FB898081806287
:1048C00007C0EE89FF896083E889F9898081806467
:1048D000808381E090E0DF91CF911F910F91FF9055
:1048E000EF900895CF93DF93EC01888D8823C9F072
:1048F000EA89FB89808185FD05C0A889B9898C91E9
:1049000086FD0FC00FB607FCF5CF808185FFF2CF83
:10491000A889B9898C9185FFEDCFCE010E940A2428
:10492000E7CFDF91CF910895CF92DF92EF92FF9280
:104930001F93CF93DF93EC016A017B01122FE8896B
:10494000F98982E080834115514E61057105B1F00E
:1049500060E079E08DE390E0A70196010E94042FCA
:10496000DA01C9010197A109B109B695A7959795F3
:1049700087959C01211580E13807A8F0E889F9891D
:10498000108260E874E88EE190E0A70196010E9431
:10499000042FDA01C9010197A109B109B695A795BC
:1049A000979587959C01EC85FD853083EE85FF8585
:1049B0002083188EEC89FD891083EA89FB89808128
:1049C00080618083EA89FB89808188608083EA89AD
:1049D000FB89808180688083EA89FB8980818F7D63
:1049E0008083DF91CF911F91FF90EF90DF90CF9068
:1049F00008951F920F920FB60F9211242F938F9349
:104A00009F93EF93FF93E0915105F09152058081C0
:104A1000E0915705F091580582FD12C09081809178
:104A20005A058F5F8F7320915B05821751F0E091DB
:104A30005A05F0E0EF5BFA4F958F80935A0501C05D
:104A40008081FF91EF919F918F912F910F900FBED9
:104A50000F901F9018951F920F920FB60F9211246E
:104A60002F933F934F935F936F937F938F939F9376
:104A7000AF93BF93EF93FF9381E495E00E940A24E4
:104A8000FF91EF91BF91AF919F918F917F916F9126
:104A90005F914F913F912F910F900FBE0F901F90FC
:104AA000189581E495E00E94CE2321E0892B09F43A
:104AB00020E0822F0895E1E4F5E01382128288EE6F
:104AC00093E0A0E0B0E084839583A683B78383EC72
:104AD00091E09183808385EC90E09587848784ECD6
:104AE00090E09787868780EC90E0918B808B81ECBB
:104AF00090E0938B828B82EC90E0958B848B86EC9C
:104B000090E0978B868B118E128E138E148E0895E3
:104B100008950E94A82A0E9488250E948B03CCEF4A
:104B2000D3E20E9456082097E1F30E94FC23F9CFBC
:104B3000CF92DF92EF92FF920F931F93CF93DF9369
:104B40006C017A018B01C0E0D0E0CE15DF0581F069
:104B5000D8016D918D01D601ED91FC910190F0810C
:104B6000E02DC6010995892B11F02196EECF7E012B
:104B7000C701DF91CF911F910F91FF90EF90DF90D0
:104B8000CF9008956115710579F0FB010190002027
:104B9000E9F73197AF01461B570BDC01ED91FC9112
:104BA0000280F381E02D099480E090E00895EF9277
:104BB000FF920F931F93CF93DF938C017B01C0E093
:104BC000D0E0F701EC0FFD1F6491662361F0D8017E
:104BD000ED91FC910190F081E02DC8010995892BA0
:104BE00011F02196EECFCE01DF91CF911F910F9161
:104BF000FF90EF900895DB0114964D915C9115970D
:104C00006D917C91DC01ED91FC910280F381E02DAE
:104C10000994DC01ED91FC910190F081E02D099463
:104C20006FEC71E00C94C2250F931F93CF93DF9329
:104C3000EC010E94D7258C01CE010E941026800F26
:104C4000911FDF91CF911F910F9108950F931F93A3
:104C5000CF93DF93EC010E94FB258C01CE010E94D3
:104C60001026800F911FDF91CF911F910F91089512
:104C70000F931F93CF93DF93EC010E94C2258C0109
:104C8000CE010E941026800F911FDF91CF911F91BE
:104C90000F9108958F929F92AF92BF92EF92FF92E1
:104CA0000F931F93CF93DF93CDB7DEB7A1970FB6C6
:104CB000F894DEBF0FBECDBF7C01FA01CB0119A273
:104CC000223008F42AE08E010F5D1F4F822E912CB6
:104CD000A12CB12CBF01A50194010E94042FF90160
:104CE000CA01015011096A3014F4605D01C0695CA9
:104CF000D8016C93232B242B252B61F7B801C70116
:104D00000E94C225A1960FB6F894DEBF0FBECDBF9C
:104D1000DF91CF911F910F91FF90EF90BF90AF90D7
:104D20009F908F9008952115310541F4DC01ED919C
:104D3000FC910190F081E02D642F09940C944A2697
:104D40009A01462F50E060E070E00C9493260F9398
:104D50001F93CF93DF93EC010E94A0268C01CE011C
:104D60000E941026800F911FDF91CF911F910F910C
:104D70000895CF92DF92EF92FF920F931F93CF93FC
:104D8000DF932115310581F4DC01ED91FC91019057
:104D9000F081E02D642FDF91CF911F910F91FF9053
:104DA000EF90DF90CF9009942A30310501F577FF1D
:104DB0001DC06A017B01EC016DE20E9409268C0195
:104DC00044275527BA014C195D096E097F092AE06D
:104DD000CE010E944A26800F911FDF91CF911F9133
:104DE0000F91FF90EF90DF90CF9008952AE0DF9130
:104DF000CF911F910F91FF90EF90DF90CF900C9487
:104E00004A269A01AB01770F660B770B0C94B926F3
:104E10000F931F93CF93DF93EC010E9401278C0126
:104E2000CE010E941026800F911FDF91CF911F911C
:104E30000F9108950F931F93CF93DF93EC010E947E
:104E40003B2A688779878A879B87E881F981068072
:104E5000F781E02DCE01099597FF17C00E943B2AEC
:104E6000088519852A853B85DC01CB01801B910BC8
:104E7000A20BB30B0C811D812E813F8180179107FE
:104E8000A207B30710F38FEF9FEFDF91CF911F9130
:104E90000F9108950F931F93CF93DF93EC010E941E
:104EA0003B2A688779878A879B87E881F981008414
:104EB000F185E02DCE01099597FF17C00E943B2A8E
:104EC000088519852A853B85DC01CB01801B910B68
:104ED000A20BB30B0C811D812E813F81801791079E
:104EE000A207B30710F38FEF9FEFDF91CF911F91D0
:104EF0000F910895FF920F931F93CF93DF93EC01CF
:104F00008B01F42ECE010E944A2797FD2DC08D32D1
:104F1000910519F19C01205331092A30310520F106
:104F2000FF2019F08E329105D1F001301105D1F03A
:104F30000230110551F48D30910539F024F40997B0
:104F4000029718F00FC0809769F4E881F981068014
:104F5000F781E02DCE010995D5CF8DE201C08EE21B
:104F600090E002C08FEF9FEFDF91CF911F910F91E3
:104F7000FF900895BF92CF92DF92EF92FF920F932E
:104F80001F93CF93DF938C01C42F40E00E947A27B8
:104F9000FC0197FD47C0C12CD12C7601B12C0C2E01
:104FA000000CDD0BEC17FD0709F1ED32F105E1F026
:104FB000CF01C0970A97D0F4AAE0B0E0A70196010C
:104FC0000E944B2F6F01FF0FEE08FF08DC01CB01A1
:104FD0008C0D9D1DAE1DBF1D6C017D0120E3C21A0D
:104FE000D108E108F10802C0BB24B394D801ED91C7
:104FF000FC910680F781E02DC8010995C8010E9447
:105000004A27FC01C0970A9768F2CE17DF0751F2D2
:10501000BB2061F066277727CB016C197D098E09CB
:105020009F0906C060E070E0CB0102C0C701B60175
:10503000DF91CF911F910F91FF90EF90DF90CF9074
:10504000BF900895EF92FF920F931F93CF93DF933A
:10505000EC017B01042F61ED71E00E94B828C701CB
:105060000E941A27002E000C110B97FD0BC0801711
:10507000910741F0682FCE010E947429C7010E9458
:105080001A27F3CFCE01DF91CF911F910F91FF909F
:10509000EF900895FC01808191810C941130CF93A1
:1050A000DF93EC0188819981009711F00E94113003
:1050B000198218821D821C821B821A82DF91CF9175
:1050C00008950F931F93CF93DF93EC018B016F5FD4
:1050D0007F4F888199810E949A30009731F099839F
:1050E00088831B830A8381E001C080E0DF91CF9138
:1050F0001F910F910895CF93DF93EC0188819981DF
:10510000892B29F08A819B818617970760F4CE014D
:105110000E946128882341F08C819D81892B19F49C
:10512000E881F981108281E0DF91CF910895EF92BB
:10513000FF920F931F93CF93DF93EC017B018A01C2
:10514000BA010E947B28811104C0CE010E944F2821
:1051500007C01D830C83B701888199810E94C031EB
:10516000CE01DF91CF911F910F91FF90EF900895A5
:10517000FC01118210821382128215821482611541
:10518000710551F0FB0101900020E9F73197AF0163
:10519000461B570B0C9497280895CF93DF93EC018F
:1051A000FB018617970761F06081718161157105B8
:1051B00029F0448155810E94972802C00E944F28FF
:1051C000CE01DF91CF910895FC01118210821382EC
:1051D0001282158214820C94CD28CF93DF93EC01B8
:1051E0006115710559F0FB0101900020E9F7319735
:1051F000AF01461B570B0E94972802C00E944F2800
:10520000CE01DF91CF9108950F931F93CF93DF933A
:10521000CDB7DEB762970FB6F894DEBF0FBECDBF35
:105220008C01CB01F8011182108213821282158247
:10523000148250E0BE016F5F7F4F0E94FE31BE01BD
:105240006F5F7F4FC8010E94ED2862960FB6F894F9
:10525000DEBF0FBECDBFDF91CF911F910F9108959B
:10526000EF92FF920F931F93CF93DF936115710518
:1052700011F480E01CC041155105C1F07B01EC0127
:105280008C819D818A01080F191FB801CE010E94EF
:105290007B28882371F3288139818C819D81B70116
:1052A000820F931F0E94C0311D830C8381E0DF9128
:1052B000CF911F910F91FF90EF900895FB014481D2
:1052C0005581608171810C9430296115710551F00F
:1052D000FB0101900020E9F73197AF01461B570B06
:1052E0000C94302980E00895CF93DF9300D0CDB7A0
:1052F000DEB769831A8241E050E0BE016F5F7F4FE5
:105300000E9430290F900F90DF91CF910895CF9395
:10531000DF93EC01FB0144815581608171810E9422
:105320003029811103C0CE010E944F28CE01DF91A8
:10533000CF910895CF93DF93EC016115710561F072
:10534000FB0101900020E9F73197AF01461B570B95
:105350000E943029811103C0CE010E944F28CE0146
:10536000DF91CF910895FC01248135816217730785
:1053700020F480819181009729F41092DE058EED52
:1053800095E00895860F971F0895CF93DF93FC0152
:10539000248135814217530780F4FB01DC01CD9154
:1053A000DC9160817181CE01840F951F0E94E431F0
:1053B000009719F08C1B9D0B02C08FEF9FEFDF91C0
:1053C000CF91089540E050E00C94C529FC01808104
:1053D0009181009711F00C94603160E070E0CB0196
:1053E00008951F920F920FB60F9211242F933F939F
:1053F0008F939F93AF93BF938091E0059091E105C8
:10540000A091E205B091E3053091DF0523E0230F81
:105410002D3720F40196A11DB11D05C026E8230FEC
:105420000296A11DB11D2093DF058093E0059093A6
:10543000E105A093E205B093E3058091E405909126
:10544000E505A091E605B091E7050196A11DB11D06
:105450008093E4059093E505A093E605B093E705F6
:10546000BF91AF919F918F913F912F910F900FBE60
:105470000F901F9018952FB7F8946091E0057091E8
:10548000E1058091E2059091E3052FBF08953FB7B4
:10549000F8948091E4059091E505A091E605B0911E
:1054A000E70526B5A89B05C02F3F19F00196A11D61
:1054B000B11D3FBFBA2FA92F982F8827820F911DAA
:1054C000A11DB11DBC01CD0142E0660F771F881FF1
:1054D000991F4A95D1F708958F929F92AF92BF92EC
:1054E000CF92DF92EF92FF926B017C010E94472ADC
:1054F0004B015C01C114D104E104F10401F10E94EB
:10550000EF2E0E94472ADC01CB0188199909AA09CC
:10551000BB09883E9340A105B10560F321E0C21AA2
:10552000D108E108F10888EE880E83E0981EA11CDE
:10553000B11CC114D104E104F10419F7DBCFFF90D1
:10554000EF90DF90CF90BF90AF909F908F90089595
:10555000789484B5826084BD84B5816084BD85B54E
:10556000826085BD85B5816085BDEEE6F0E0808115
:1055700081608083E1E8F0E0108280818260808336
:10558000808181608083E0E8F0E0808181608083B9
:10559000E1EBF0E0808184608083E0EBF0E08081EB
:1055A00081608083EAE7F0E080818460808380818D
:1055B0008260808380818160808380818068808335
:1055C0001092C1000895833081F028F4813099F061
:1055D0008230A1F008958730A9F08830B9F0843086
:1055E000D1F4809180008F7D03C0809180008F77FF
:1055F00080938000089584B58F7702C084B58F7D35
:1056000084BD08958091B0008F7703C08091B00071
:105610008F7D8093B0000895CF93DF9390E0FC01DD
:10562000E756FC4F2491FC01E355FC4F84918823FD
:1056300061F190E0880F991FFC01EB52FC4FC5917E
:10564000D491FC01E553FC4FA591B491611109C0BF
:105650009FB7F8948881209582238883EC912E232C
:105660000BC0623061F49FB7F8948881322F309577
:1056700083238883EC912E2B2C939FBF06C08FB77A
:10568000F894E8812E2B28838FBFDF91CF91089566
:105690001F93CF93DF93282F30E0F901EB57FC4F96
:1056A0008491F901E756FC4FD491F901E355FC4F81
:1056B000C491CC23C1F0162F81110E94E32AEC2F54
:1056C000F0E0EE0FFF1FE553FC4FA591B4919FB79B
:1056D000F894111104C08C91D095D82302C0EC919C
:1056E000DE2BDC939FBFDF91CF911F910895CF9365
:1056F000DF93282F30E0F901EB57FC4F8491F9013B
:10570000E756FC4FD491F901E355FC4FC491CC23EB
:1057100091F081110E94E32AEC2FF0E0EE0FFF1FC1
:10572000EF53FC4FA591B491EC91ED2381E090E013
:1057300021F480E002C080E090E0DF91CF910895F5
:105740008091180690E020911906821B9109089516
:105750009091190680911806981750F4E92FF0E0FF
:10576000E65EF94F208130E09F5F9093190602C0FA
:105770002FEF3FEFC9010895E091190680911806B7
:10578000E81730F4F0E0E65EF94F808190E008958C
:105790008FEF9FEF08950895CF92DF92EF92FF92DF
:1057A0000F931F93CF93DF937C01CB018A0120914C
:1057B000F405222389F0EB016B01C40ED51ECC1534
:1057C000DD0569F06991D701ED91FC910190F081BF
:1057D000E02DC7010995F3CF642F0E94992DC801D0
:1057E000DF91CF911F910F91FF90EF90DF90CF90BD
:1057F0000895CF93DF931F92CDB7DEB769832091D1
:10580000F4052223D1F02091F505203240F021E06B
:1058100030E0FC013383228380E090E015C080916A
:10582000F605E82FF0E0E950FA4F998190838F5FF9
:105830008093F6058093F50505C061E0CE010196E1
:105840000E94992D81E090E00F90DF91CF91089513
:10585000FC011382128288EE93E0A0E0B0E0848322
:105860009583A683B78382EE91E091838083089528
:1058700081E08093F405609317061092F60510926C
:10588000F50508950C94382C0F93062F21E04091D4
:10589000F50567EF75E0809117060E94432D109281
:1058A000F6051092F5051092F4050F9108954F92A8
:1058B0005F926F927F92AF92BF92CF92EF92FF92E0
:1058C0000F931F93CF93DF935C01F62ED42F280103
:1058D0003901EE2021F10E94382CCE2DC43008F081
:1058E000C3E0C150C0F028E0C29FC0011124A30151
:1058F000920104C056954795379527958A95D2F71A
:10590000CA01B901D501ED91FC910190F081E02D22
:10591000C5010995E6CF60E0C5010E94442C4D2FDA
:10592000D13208F040E22C2D6AE176E08F2D0E9402
:10593000FB2C1092190680931806DF91CF911F91CE
:105940000F91FF90EF90CF90BF90AF907F906F90AE
:105950005F904F900895CF92EF920F931F93C22EB6
:10596000E12C00E010E098010E94572C1F910F914C
:10597000EF90CF90089521E00C94AB2C61E00C9453
:10598000442C88EE95E00C94282CCF93CFB7F89454
:1059900080913D06811127C0E7EBF3E08491E3EAB3
:1059A000F3E09491E82FF0E0EE0FFF1FEB52FC4F75
:1059B000A591B491EC91E92321F461E08AE00E9481
:1059C000482B61E08AE00E940C2B8CB580618CBD75
:1059D0008CB580648CBD61E08DE00E940C2B61E091
:1059E0008BE00E940C2B80913D068F5F80933D06DB
:1059F000CFBFCF910895413208F043C09091AB06DC
:105A00009111FCCF91E09093AB062093A9062FEF64
:105A100020933E0610928306240F209382069093D3
:105A2000AA069091AA06880F892B8093AA068091D6
:105A3000A806813061F41092A8068091AA0680938E
:105A4000BB008091BC0083FDF8CF85EC01C085EEE2
:105A50008093BC008091AB068130E1F38091830696
:105A6000841710F440918306A4E8B6E0962FFB015A
:105A70008E2F891B841718F48D918193F9CF842F71
:105A8000089580E008950F93413208F04AC0909144
:105A9000AB069111FCCF32E03093AB060093A90620
:105AA0003FEF30933E061092830640938206562FB6
:105AB000A4E8B6E0FB013E2F351B341718F43191F2
:105AC0003D93F9CF1092AA063091AA06880F832B36
:105AD0008093AA068091A806813061F41092A806EE
